:020000040000FA
:100000000C9433010C9464010C9464010C9464010D
:100010000C9464010C9464010C9464010C946401CC
:100020000C9464010C9464010C9464010C946401BC
:100030000C9464010C9464010C9464010C946401AC
:100040000C9464010C94270B0C9464010C946401CF
:100050000C9464010C9464010C9464010C94530A94
:100060000C9464010C941D0A0C94F3090C94640123
:100070000C9464010C9464010C9464010C9464016C
:100080000C94F90A0C9464010C9464010C946401BE
:100090000C9464010C9464010C9464010C94550B51
:1000A0000C9464010C9464010C94CB0A0C946401CC
:1000B0000C9464010C9464010C9464010C949D0AEA
:1000C0000C9464010C9464010C9464010C9464011C
:1000D0000C9464010C9464010C9464010C9464010C
:1000E0000C9464010C944B040C94CA020C941B06EF
:1000F0000C9420030C941C030C94E9020C94CF0282
:100100000C94E1020C943C040C9492040C9465044D
:100110000C9408030C943B040C943A040C94FA02DB
:100120000C94A2010C9416030C9493010C940E03EE
:100130000C945E040C94C4010C94CA070C9439040A
:100140000C9449020C9422060C94E5020C94A80528
:100150000C94B6010C9400030C94790C0C941203CB
:100160000C94ED020C9466010C94F0020C94F602CF
:100170000C94FC010C9404030000220025002800CC
:100180002B002E003100340002010000050108019F
:100190000B0105050505070508080808020202020B
:1001A0000A0A080804040404010101010101010113
:1001B0000303030303030303040707070C0C0C0CDE
:1001C0000C0C0C0C020202020606060606060606C7
:1001D0000B0B0B0B0B0B0B0B010210202008081054
:1001E00020401020408002010201080402010102A7
:1001F0000408102040808040201008040201800480
:1002000002018040201008040201080402010102DA
:1002100004081020408001020408102040800000E3
:100220000A0B02090C0D0E08070304010000000070
:1002300000000000000000000000000000000000BE
:10024000000000000000000000001211100000007B
:10025000000000000000000000000000000000009E
:1002600000000000790C11241FBECFEFD1E2DEBFE9
:10027000CDBF00E00CBF12E0A0E0B2E0E8E7F3E29F
:1002800000E00BBF02C007900D92A834B107D9F768
:1002900024E0A8E4B2E001C01D92A437B207E1F760
:1002A00011E0C3E3D1E000E006C021970109802FEF
:1002B000FE010E94AB11C233D10780E00807A9F705
:1002C0000E94F60C0C94BA110C940000AF92BF92ED
:1002D000CF92DF92EF92FF920F931F93CF93DF9312
:1002E0006C017B018B01040F151FEB015E01AE1841
:1002F000BF08C017D10759F06991D601ED91FC9163
:100300000190F081E02DC6011995892B79F7C5017F
:10031000DF91CF911F910F91FF90EF90DF90CF90E1
:10032000BF90AF900895FC01538D448D252F30E090
:10033000842F90E0821B930B541710F0CF960895F2
:1003400001970895FC01918D828D981761F0A28D1F
:10035000AE0FBF2FB11D5D968C91928D9F5F9F73E5
:10036000928F90E008958FEF9FEF0895FC01918D9B
:10037000828D981731F0828DE80FF11D858D90E008
:1003800008958FEF9FEF0895FC01918D228D892FA5
:1003900090E0805C9F4F821B91098F73992708958D
:1003A00080EA93E00E94C40121E0892B09F420E057
:1003B000822F0895FC01A48DA80FB92FB11DA35A57
:1003C000BF4F2C91848D90E001968F739927848F75
:1003D000A689B7892C93A089B1898C918370806498
:1003E0008C93938D848D981306C00288F389E02D39
:1003F00080818F7D80830895EF92FF920F931F93EA
:10040000CF93DF93EC0181E0888F9B8D8C8D9813C7
:100410001AC0E889F989808185FF15C09FB7F894D3
:10042000EE89FF896083E889F9898081837080641F
:1004300080839FBF81E090E0DF91CF911F910F916A
:10044000FF90EF900895F62E0B8D10E00F5F1F4F79
:100450000F731127E02E8C8D8E110CC00FB607FC88
:10046000FACFE889F989808185FFF5CFCE010E9416
:10047000DA01F1CFEB8DEC0FFD2FF11DE35AFF4FA9
:10048000F0829FB7F8940B8FEA89FB8980818062A4
:10049000CFCFCF93DF93EC01888D8823B9F0AA8961
:1004A000BB89E889F9898C9185FD03C0808186FD2F
:1004B0000DC00FB607FCF7CF8C9185FFF2CF80817E
:1004C00085FFEDCFCE010E94DA01E9CFDF91CF9118
:1004D000089580E090E0892B29F00E94D0018111DD
:1004E0000E94000080E090E0892B49F080E090E0DD
:1004F000892B29F00E94000081110E94000080E0F9
:1005000090E0892B49F080E090E0892B29F00E944F
:10051000000081110E94000080E090E0892B49F0EA
:1005200080E090E0892B29F00E94000081110C945A
:1005300000000895282F30E0F901E25EFD4F94910C
:10054000F901E852FE4F44912E563E4FF901249195
:10055000222309F435C0992311F191509231F8F416
:10056000E92FF0E08827E854FD4F8F4F0C94AB1132
:10057000E902ED02CA02E102E502CF02F002F60250
:10058000FA020003040308030E031203CF0216034A
:100590001C032003809180008F7780938000E22FDE
:1005A000F0E0EE0FFF1FE858FE4FA591B4918FB712
:1005B000F894EC91611148C040954E234C938FBF45
:1005C0000895809180008F7DE8CF80918000877FA3
:1005D000E4CF84B58F7784BDE2CF84B58F7DFBCF28
:1005E0008091B0008F778093B000D9CF8091B00018
:1005F0008F7DF9CF809190008F7780939000CFCF3F
:10060000809190008F7DF9CF80919000877FF5CF0A
:100610008091A0008F778093A000C1CF8091A0002F
:100620008F7DF9CF8091A000877FF5CF8091200149
:100630008F7780932001B3CF809120018F7DF9CFF8
:1006400080912001877FF5CF4E2BB8CF3FB7F8942C
:100650008091940390919503A0919603B091970394
:1006600026B5A89B05C02F3F19F00196A11DB11D0D
:100670003FBFBA2FA92F982F8827BC01CD01620F49
:10068000711D811D911D42E0660F771F881F991F04
:100690004A95D1F708958F929F92AF92BF92CF92D1
:1006A000DF92EF92FF924B015C010E9426036B01E7
:1006B0007C010E9426036C197D098E099F09683E02
:1006C000734081059105A8F321E0821A9108A108E1
:1006D000B10888EEC80E83E0D81EE11CF11C81141D
:1006E0009104A104B10429F7FF90EF90DF90CF901F
:1006F000BF90AF909F908F900895CF93DF93DB01D1
:10070000EA01FC01E157FC4F40815CE0589F9001F9
:10071000599F300D112447FF1CC011961C921E9248
:1007200080818F5F80838081A901480F511D87FDE3
:100730005A9557FF03C080818C30ACF08D919C910D
:100740001197049680349C4938F18D919C910496C0
:1007500025C08081A901480F511D87FD5A9557FF7B
:10076000DFCF8081DDCF8D919C914081240F311DA1
:1007700047FD3A95D901AA0FBB1FA20FB31FA15085
:10078000BD4F11962D913C91820F931F99838883C1
:100790008081DF91CF91089580E49CE999838883DB
:1007A0008FEF8083F6CF2091B302260F3327331FBC
:1007B00021323105ECF42091D902FC0190E080E077
:1007C000243069F082E00895A091B3022191AC0138
:1007D0004F565D4FA40FB52FB11D2C930196861770
:1007E00098F38091B302680F6093B30280E008959C
:1007F00081E008951092D90281E08093DB0210928B
:10080000DA0261E084E10E949A0261E085E10E94DF
:100810009A02E9EBF0E080818E7F808380818D7F7A
:10082000808388E48093B80085E48093BC000895B9
:10083000CF93DF9391E0909390028823B9F0C09119
:10084000B800D091BA008091BC008A7B8093BC0034
:1008500060E084E10E949A0260E085E10E949A02D1
:100860000E94FA03D093BA00C093B800DF91CF91F1
:100870000895089508950895E0918A02809189026B
:10088000E81730F4F0E0E759FD4F808190E00895DB
:100890008FEF9FEF089590918A02809189022FEF48
:1008A0003FEF981748F4E92FF0E0E759FD4F20811A
:1008B00030E09F5F90938A02C90108958091890278
:1008C00090918A02891B990B0895CF92DF92EF9243
:1008D000FF920F931F93CF93DF937C01CB018A018B
:1008E00020919B03222389F0EB016B01C40ED51EDE
:1008F000CC15DD0569F06991D701ED91FC9101906E
:10090000F081E02DC7011995F3CF642F0E94D30326
:10091000C801DF91CF911F910F91FF90EF90DF9071
:10092000CF900895CF93DF931F92CDB7DEB7698341
:1009300020919B032223F9F020919803203258F054
:1009400021E030E0FC013383228390E080E00F90CF
:10095000DF91CF91089580919903E82FF0E0E75B54
:10096000FD4F998190838F5F8093990380939803C3
:1009700081E090E0ECCF61E0CE0101960E94D303CC
:10098000F7CFCF92DF92EF92FF920F931F93CF9307
:10099000DF93D091980381E0D13208F09CC0C091E0
:1009A0009A030E9426036B017C018091D902811178
:1009B0006CC082E08093D90281E08093DB028FEFEC
:1009C0008093D8021092FD02D093FC02A9E4B2E019
:1009D000ECEDF2E080E0D8138DC01092FE02809121
:1009E000FE02CC0FC82BC093FE028091DA02813048
:1009F00009F084C01092DA020E9426036B017C0188
:100A00008091FE028093BB0080918C0290918D02B8
:100A1000A0918E02B0918F02892B8A2B8B2BA1F093
:100A20000E94260300918C0210918D0220918E026B
:100A300030918F026C197D098E099F0906171707DF
:100A40002807390708F442C08091BC0083FDD8CF45
:100A500085EC8093BC000E9426036B017C01809191
:100A6000D902823009F44CC08091D8028F3F09F43A
:100A700069C08091D802803209F466C08091D802A2
:100A8000803309F463C084E026C080918C02909189
:100A90008D02A0918E02B0918F02892B8A2B8B2B15
:100AA00009F483CF0E94260300918C0210918D02DD
:100AB00020918E0230918F026C197D098E099F0959
:100AC000061717072807390708F06FCF80918B02A8
:100AD0000E94180485E010929903109298031092D6
:100AE0009B03DF91CF911F910F91FF90EF90DF90CB
:100AF000CF9008959D9191938F5F6DCF85EEA9CF93
:100B000080918C0290918D02A0918E02B0918F0203
:100B1000892B8A2B8B2B09F4A2CF0E9426030091EC
:100B20008C0210918D0220918E0230918F026C19EF
:100B30007D098E099F09061717072807390708F04E
:100B40008ECFC4CF80E0C7CF82E0C5CF83E0C3CFD4
:100B500090E080E00895089508951F93CF93DF9368
:100B6000EC01142F89819A81288131E030939B0315
:100B700020939A031092990310929803DC01ED914F
:100B8000FC910190F081E02D199589819A81DC0119
:100B9000ED91FC910190F081E02D612F19958981F3
:100BA0009A81DF91CF911F910C94C104DC01ED91EA
:100BB000FC910190F081E02D19940F931F93CF9336
:100BC000DF93EC018A0189819A81288131E0309399
:100BD0009B0320939A03109299031092980324E0A8
:100BE000629FB00111246A5F7F4FDC01ED91FC919F
:100BF0000190F081E02D199570E060E089819A8183
:100C00000E94D60570E060E089819A810E94D60535
:100C1000B80189819A810E94D605612F70E089818F
:100C20009A810E94D60589819A81DF91CF911F9187
:100C30000F910C94C10440E050E1FC01658D889651
:100C40000C94DD05AB01FC01658D88960C94DD05E7
:100C500020916E04222371F020915C0430915D0498
:100C600040915A0450915B04240F351FA901481B81
:100C7000590BCA01BC0189E494E00C942206CF937D
:100C8000DF93FC0101900020E9F73197AF01481B89
:100C9000590BBC0180EA93E00E946601EC0142E03E
:100CA00050E06EE272E080EA93E00E9466018C0FF1
:100CB0009D1FDF91CF91089585ED8093BC008091B9
:100CC0008C0290918D02A0918E02B0918F020796B6
:100CD000A11DB11D23E0B695A795979587952A95F7
:100CE000D1F72091BC0024FD03C01092D9020895D1
:100CF00040918C0250918D0260918E0270918F0212
:100D0000452B462B472B69F30097A105B10541F010
:100D100025E32A95F1F700000197A109B109E1CF78
:100D200080918B020C9418048F929F92AF92BF9285
:100D3000CF92DF92EF92FF920F931F93CF93DF93A7
:100D4000EC01CB01BA0126E636E646E65FE30E94F7
:100D50003E119B01AC0160E27CEB8EEB95E40E94BE
:100D6000870F20E030E040E85FE30E94150F20E0AD
:100D700030E040E05FE30E94160F0E946C100E947A
:100D80000010062F89819A81288131E030939B03DE
:100D900020939A031092990310929803DC01ED912D
:100DA000FC910190F081E02D60E0199589819A8194
:100DB0000E94C10418810E9426036B017C0180916E
:100DC000D902811164C081E08093D9028093DB0253
:100DD0009FEF9093D8021092FD021092FC02809334
:100DE000FE028091FE02110F182B1093FE028091DB
:100DF000DA02813009F0A8C01092DA020E942603BC
:100E00006B017C018091FE028093BB0080918C027B
:100E100090918D02A0918E02B0918F02892B8A2B26
:100E20008B2BA1F00E94260380908C0290908D0263
:100E3000A0908E02B0908F026C197D098E099F09D7
:100E400086169706A806B90608F442C08091BC0031
:100E500083FDD8CF85EC8093BC000E9426036B01F4
:100E60007C018091D902813009F470C08091FD022B
:100E700081118EC08091FD02ECEDF2E0A9E6B2E0B6
:100E800090E0981751F121912D939F5FFACF8091B7
:100E90008C0290918D02A0918E02B0918F02892BCD
:100EA0008A2B8B2B09F48BCF0E94260380908C0217
:100EB00090908D02A0908E02B0908F026C197D09E7
:100EC0008E099F0986169706A806B90608F077CFFF
:100ED00080918B020E94180480E010928A02809315
:100EE000890289819A81DC01ED91FC910284F3856C
:100EF000E02D1995182F482F4F76406160E0CE0104
:100F00000E94AD05402F6EEFCE010E94AD05412F2E
:100F100060E0CE010E94AD0565E070E080E090E009
:100F20000E944B03412F406A60E0CE01DF91CF91D8
:100F30001F910F91FF90EF90DF90CF90BF90AF90F7
:100F40009F908F900C94AD0585EE85CF80918C029B
:100F500090918D02A0918E02B0918F02892B8A2BE5
:100F60008B2B09F47ECF0E94260380908C029090F8
:100F70008D02A0908E02B0908F026C197D098E09AF
:100F80009F0986169706A806B90608F06ACFA0CF73
:100F900081E072CFCF93DF93FC01658F20914802EF
:100FA000211136C021E020934802EC01A89610924E
:100FB0008A021092890210929903109298030E945B
:100FC000FA0389E394E09093B2028093B1028AE33A
:100FD00094E09093B6028093B50240E860E0CE01C1
:100FE0000E94AD056AE070E080E090E00E944B0353
:100FF00040E050E06AE774E4CE010E94940640E0CD
:1010000050E060E772E4CE01DF91CF910C9494063A
:10101000DF91CF9108952F923F924F925F926F92FE
:101020007F928F929F92AF92BF92CF92DF92EF9278
:10103000FF920F931F93CF93DF9300D000D01F92A6
:10104000CDB7DEB72FB7F89480919C0390919D03A4
:10105000A0919E03B0919F032FBF409162045091D5
:1010600063046091640470916504841B950BA60B66
:10107000B70B4497A105B10508F451C12FB7F894F7
:1010800080919C0390919D03A0919E03B0919F033A
:101090002FBF8093620490936304A0936404B09381
:1010A000650480916B04882309F439C100915604CA
:1010B000109157042091580430915904201B310B92
:1010C0003E832D83190137FF03C0319421943108E9
:1010D00080916F04821513040CF05BC1C0904B0427
:1010E000D0904C04E0904D04F0904E04A70196017E
:1010F00060914F047091500480915104909152047A
:101100000E94150F4B015C0120E030E0A9010E9414
:101110003911181624F0B7FAB094B7F8B09460916A
:10112000700470E090E080E00E943110A50194010D
:101130000E94391118160CF02CC16091690470914D
:101140006A0480915E0490915F04A0916004B09164
:10115000610489839A83AB83BC836115710509F4AB
:1011600009C190E080E00E942F102B013C01AC01EE
:101170009B0169817A818B819C810E943E114B0188
:101180005C01A7019601C701B6010E943E11A301AF
:1011900092010E94870F20E030E040E05FE30E9470
:1011A0003E112B013C01B101330C880B990B0E94BD
:1011B00031109B01AC01C301B2010E94391187FDBE
:1011C000CEC0C701B6010E94F90F161617060CF023
:1011D000C3C061E070E0719561957109072E000C44
:1011E000880B990B0E9431109B01AC01C501B40121
:1011F0000E943E11A70196010E94160F60934B04B6
:1012000070934C0480934D0490934E0480904B0453
:1012100090904C04A0904D04B0904E04E090670470
:10122000F0906804662777276E197F09072E000C57
:10123000880B990B0E9431106B018F839D839B015A
:10124000AC01B401C5010E94820F87FD14C0B70133
:10125000FF0C880B990B0E9431106B018F839D83CB
:101260009B01AC01B401C5010E94391118161CF094
:101270006401AF82BD82C601AF81BD8180934B0402
:1012800090934C04A0934D04B0934E04B801110FF9
:10129000880B990B0E9431104B015C0196014F8124
:1012A0005D8169817A818B819C810E943E119B01C5
:1012B000AC01C501B4010E94160F0E94F90F709392
:1012C00057046093560480916C04811112C081E030
:1012D00080936C041092530480916D04882349F02C
:1012E00060916604062E000C770B89E494E00E945E
:1012F000CA0780915604909157040E942806809155
:101300004B0490914C04A0914D04B0914E048093F5
:101310004F0490935004A0935104B09352049091C1
:101320006C0481E0892727960FB6F894DEBF0FBEC4
:10133000CDBFDF91CF911F910F91FF90EF90DF9084
:10134000CF90BF90AF909F908F907F906F905F9065
:101350004F903F902F9008956FEF7FEF3CCFAD817E
:10136000BE8161E070E01A161B060CF437CF6FEFF8
:101370007FEF34CF2D813E81B901330F880B990B5C
:101380000E94311029813A814B815C810E94870F34
:1013900035CF10924B0410924C0410924D041092D1
:1013A0004E0480916C04882341F0C8010E942806F5
:1013B000809153048F5F80935304809153048B304A
:1013C00008F49DCF80916C04882309F498CF109283
:1013D0006C0480916D04882309F491CF89E494E032
:1013E0000E941B068CCF1F920F920FB60F921124F2
:1013F0000BB60F922F933F934F935F936F937F930F
:101400008F939F93AF93BF93EF93FF9380EA93E003
:101410000E94DA01FF91EF91BF91AF919F918F915F
:101420007F916F915F914F913F912F910F900BBEE4
:101430000F900FBE0F901F9018951F920F920FB62E
:101440000F9211240BB60F922F938F939F93EF93CC
:10145000FF93E091B003F091B1038081E091B60376
:10146000F091B70382FD1DC090818091B9038F5F19
:101470008F732091BA03821741F0E091B903F0E035
:10148000E056FC4F958F8093B903FF91EF919F91A8
:101490008F912F910F900BBE0F900FBE0F901F904A
:1014A00018958081F2CF1F920F920FB60F921124E0
:1014B0002F933F938F939F93AF93BF9380919C0300
:1014C00090919D03A0919E03B0919F03309193034F
:1014D00023E0230F2D3758F50196A11DB11D209350
:1014E000930380939C0390939D03A0939E03B093DA
:1014F0009F038091940390919503A0919603B091DE
:1015000097030196A11DB11D8093940390939503B9
:10151000A0939603B0939703BF91AF919F918F9142
:101520003F912F910F900FBE0F901F90189526E8B6
:10153000230F0296A11DB11DD2CF1F920F920FB69D
:101540000F9211240BB60F922F933F934F935F93FB
:101550006F937F938F939F93AF93BF93EF93FF937B
:1015600048E251E064E271E090E080E00E947D0397
:10157000FF91EF91BF91AF919F918F917F916F916B
:101580005F914F913F912F910F900BBE0F900FBE27
:101590000F901F9018951F920F920FB60F92112463
:1015A0000BB60F922F933F934F935F936F937F935D
:1015B0008F939F93AF93BF93EF93FF9348EA50E0CD
:1015C00064EA70E083E090E00E947D03FF91EF9178
:1015D000BF91AF919F918F917F916F915F914F914B
:1015E0003F912F910F900BBE0F900FBE0F901F9049
:1015F00018951F920F920FB60F9211240BB60F92EF
:101600002F933F934F935F936F937F938F939F930A
:10161000AF93BF93EF93FF9348E950E064E970E024
:1016200082E090E00E947D03FF91EF91BF91AF9126
:101630009F918F917F916F915F914F913F912F91EA
:101640000F900BBE0F900FBE0F901F9018951F921A
:101650000F920FB60F9211240BB60F922F933F9358
:101660004F935F936F937F938F939F93AF93BF93AA
:10167000EF93FF9348E850E064E870E081E090E089
:101680000E947D03FF91EF91BF91AF919F918F9148
:101690007F916F915F914F913F912F910F900BBE72
:1016A0000F900FBE0F901F9018951F920F920FB6BC
:1016B0000F9211240BB60F922F933F934F935F938A
:1016C0006F937F938F939F93AF93BF93EF93FF930A
:1016D0008091B900887F803609F44DC008F040C081
:1016E000883209F4A9C028F5803109F49DC0C8F4F6
:1016F000882309F4FBC0883009F496C0FF91EF916C
:10170000BF91AF919F918F917F916F915F914F9119
:101710003F912F910F900BBE0F900FBE0F901F9017
:101720001895883109F488C0803241F78093D80237
:1017300014C0803409F49DC040F48033B9F3883379
:10174000E9F68093D80285ECB0C0803509F485C0F5
:10175000883509F496C0883489F60E945C06CECF9D
:10176000883909F48CC038F5883729F050F4883668
:1017700011F0803719F683E08093D9021092D702D6
:1017800057C0883809F47BC0803919F0803809F0D7
:10179000B5CF8091D702803208F071C0E091D702B6
:1017A00081E08E0F8093D7028091BB00F0E0E95476
:1017B000FD4F80833DC0803B39F0E0F4803A09F46E
:1017C00079C0883A09F09ACF84E08093D9021092C8
:1017D000B4021092B302E091B102F091B2021995F5
:1017E0008091B30281110FC081E08093B302109207
:1017F000910209C0803C09F4A6CF883C09F4A3CF2C
:10180000883B09F07BCFE091B40281E08E0F80939A
:10181000B402F0E0EF56FD4F80818093BB009091C1
:10182000B4028091B30229C08091FE028093BB0074
:1018300085EC8093BC0062CF9091FD028091FC0208
:10184000981758F5E091FD0281E08E0F8093FD021C
:10185000F0E0E452FD4F8081E9CFE091FD0281E0AC
:101860008E0F8093FD028091BB00F0E0E452FD4FAB
:1018700080839091FD028091FC029817C8F285E860
:10188000D8CFE091FD0281E08E0F8093FD02809120
:10189000BB00F0E0E452FD4F80838091DB028111B8
:1018A0005CCF81E08093DA0284EA8093BC001092DE
:1018B000D90224CF85EC8093BC001092D90280918C
:1018C000D702803230F4E091D702F0E0E954FD4FC6
:1018D00010826091D70270E0E091B502F091B602FB
:1018E00087EB92E019951092D70208CF1092D80298
:1018F00034CFE0EAF3E01382128248EE53E060E076
:1019000070E0448355836683778384E092E091831B
:10191000808385EC90E09587848784EC90E09787BE
:10192000868780EC90E0918B808B81EC90E0938BAC
:10193000828B82EC90E0958B848B86EC90E0978B89
:10194000868B118E128E138E148EADE3B4E0139637
:101950001C921E92129714964D935D936D937C93F7
:10196000179786E192E011969C938E93E9E4F4E058
:1019700012821382148215821682178210861186B3
:10198000128684EB90E09487838728E532E03687DF
:101990002587308B27874AE057ED63EA7CE3458B48
:1019A000568B678B708F118E128E138E148E88E774
:1019B00095E0978F868F88EE93E091A380A381E0D6
:1019C00082A383A384A315A248E252E051834083FB
:1019D00090E490A7B2A7A1A746E950E0528B418BB3
:1019E000348B238B95E096A387A30895789484B5D0
:1019F000826084BD84B5816084BD85B5826085BD0B
:101A000085B5816085BD80916E00816080936E0098
:101A1000109281008091810082608093810080918A
:101A2000810081608093810080918000816080933B
:101A300080008091B10084608093B1008091B000FB
:101A400081608093B00080919100826080939100CA
:101A500080919100816080939100809190008160DD
:101A6000809390008091A10082608093A10080917A
:101A7000A10081608093A1008091A000816080938B
:101A8000A000809121018260809321018091210139
:101A900081608093210180912001816080932001E9
:101AA00080917A00846080937A0080917A008260CD
:101AB00080937A0080917A00816080937A0080918F
:101AC0007A00806880937A001092C100E091B003A0
:101AD000F091B10382E08083E091AC03F091AD031B
:101AE0001082E091AE03F091AF038FEC80831092EF
:101AF000B803E091B403F091B50386E08083E091F0
:101B0000B203F091B303808180618083E091B203DE
:101B1000F091B303808188608083E091B203F091FB
:101B2000B303808180688083E091B203F091B303B6
:101B300080818F7D808385E392E00E943F0683E170
:101B400091E090935B0480935A0489E393E090932F
:101B50005D0480935C0488E08093660468E070E034
:101B600089E494E00E94CA0780915404909155043E
:101B700097FDEBC0C0915A04D0915B04CE010E9446
:101B80002806D0935704C0935604D0935904C093A9
:101B90005804C0915C04D0915D042CE330E0DE0178
:101BA0000E94B3112091540430915504032E000C6F
:101BB000440B550B0E94B20E3093680420936704C7
:101BC000BE01DD0F880B990B0E94311026E636E628
:101BD00046E65FE30E943E1120E030E040E450E43E
:101BE0000E943E110E94001070936A046093690481
:101BF00060ED77E080E090E00E944B0381E392E0AB
:101C00000E943F060E940B08A0915C04B0915D0405
:101C10004D010B2E000CAA08BB08C0915404D091B2
:101C200055042E010D2E000C660877082CE330E0D9
:101C30000E94B311A30192010E94B20E3093680476
:101C400020936704C0905A04D0905B0410926A04F9
:101C500010926904CA30D10514F0CAE0D0E00D2C0E
:101C6000000CEE08FF08A50194012C193D094E094E
:101C70005F09DE010E94DC0EA30192010E94B20EF8
:101C8000C20ED31EE41EF51ED0925904C092580411
:101C90008BE392E00E943F0668EE73E080E090E004
:101CA0000E944B030E940B08A0915C04B0915D045C
:101CB0004D010B2E000CAA08BB08C0915404D09112
:101CC00055042E010D2E000C660877082EE130E039
:101CD0000E94B311A30192010E94B20E30936804D6
:101CE00020936704C0905A04D0905B0410926A0459
:101CF00010926904C233D10514F0C2E3D0E00D2C78
:101D0000000CEE08FF08A50194012C193D094E09AD
:101D10005F09DE010E94DC0EA30192010E94B20E57
:101D2000C20ED31EE41EF51ED0925904C092580470
:101D300081E492E00E943F0668EE73E080E090E06C
:101D40000E944B030E9469025DCF90E080E00E94F8
:101D500028061092570410925604109259041092BB
:101D6000580417CF052E97FB1EF400940E94C90E4D
:101D700057FD07D00E94E40E07FC03D04EF40C94EC
:101D8000C90E50954095309521953F4F4F4F5F4F6D
:101D9000089590958095709561957F4F8F4F9F4FD7
:101DA00008950E94060FA59F900DB49F900DA49FCB
:101DB000800D911D11240895B7FF0C94D10E0E943F
:101DC000D10E821B930B0895A1E21A2EAA1BBB1BF6
:101DD000FD010DC0AA1FBB1FEE1FFF1FA217B307F7
:101DE000E407F50720F0A21BB30BE40BF50B661F0D
:101DF000771F881F991F1A9469F7609570958095D1
:101E000090959B01AC01BD01CF010895A29FB00147
:101E1000B39FC001A39F700D811D1124911DB29F1E
:101E2000700D811D1124911D08955058BB27AA27BC
:101E30000E942D0F0C94E7100E94D91038F00E94D8
:101E4000E01020F039F49F3F19F426F40C94D610DA
:101E50000EF4E095E7FB0C94A710E92F0E94F81010
:101E600058F3BA17620773078407950720F079F4CF
:101E7000A6F50C9432110EF4E0950B2EBA2FA02D7E
:101E80000B01B90190010C01CA01A0011124FF2727
:101E9000591B99F0593F50F4503E68F11A16F04022
:101EA000A22F232F342F4427585FF3CF4695379521
:101EB0002795A795F0405395C9F77EF41F16BA0BE6
:101EC000620B730B840BBAF09150A1F0FF0FBB1F94
:101ED000661F771F881FC2F70EC0BA0F621F731FDD
:101EE000841F48F4879577956795B795F7959E3F3A
:101EF00008F0B0CF9395880F08F09927EE0F9795CB
:101F0000879508950E94831008F481E008950E9447
:101F10009B0F0C94E7100E94E01058F00E94D9101B
:101F200040F029F45F3F29F00C94A71051110C9454
:101F300033110C94D6100E94F81068F39923B1F372
:101F4000552391F3951B550BBB27AA2762177307DF
:101F5000840738F09F5F5F4F220F331F441FAA1F73
:101F6000A9F335D00E2E3AF0E0E832D0915050402F
:101F7000E695001CCAF72BD0FE2F29D0660F771FDD
:101F8000881FBB1F261737074807AB07B0E809F0C3
:101F9000BB0B802DBF01FF2793585F4F3AF09E3F48
:101FA000510578F00C94A7100C9433115F3FE4F3C3
:101FB000983ED4F3869577956795B795F7959F5F8B
:101FC000C9F7880F911D9695879597F90895E1E0D7
:101FD000660F771F881FBB1F621773078407BA0736
:101FE00020F0621B730B840BBA0BEE1F88F7E09591
:101FF00008950E9400106894B1110C943311089553
:102000000E94001188F09F5798F0B92F9927B75177
:10201000B0F0E1F0660F771F881F991F1AF0BA958C
:10202000C9F714C0B13091F00E943211B1E00895A7
:102030000C943211672F782F8827B85F39F0B93F99
:10204000CCF3869577956795B395D9F73EF490953F
:102050008095709561957F4F8F4F9F4F0895E894BD
:1020600009C097FB3EF490958095709561957F4FE0
:102070008F4F9F4F9923A9F0F92F96E9BB2793958E
:10208000F695879577956795B795F111F8CFFAF49E
:10209000BB0F11F460FF1BC06F5F7F4F8F4F9F4FCF
:1020A00016C0882311F096E911C0772321F09EE82D
:1020B000872F762F05C0662371F096E8862F70E093
:1020C00060E02AF09A95660F771F881FDAF7880F6D
:1020D0009695879597F908950E941A1190F09F3769
:1020E00048F4911116F00C94331160E070E080E830
:1020F0009FEB089526F41B16611D711D811D0C9424
:10210000AD100C94C810990F0008550FAA0BE0E809
:10211000FEEF16161706E807F907C0F012161306A9
:10212000E407F50798F0621B730B840B950B39F4E9
:102130000A2661F0232B242B252B21F408950A264F
:1021400009F4A140A6958FEF811D811D089597F98F
:102150009F6780E870E060E00895882371F477233A
:1021600021F09850872B762F07C0662311F499270A
:102170000DC09051862B70E060E02AF09A95660FB2
:10218000771F881FDAF7880F9695879597F9089536
:102190009F3F31F0915020F4879577956795B795DB
:1021A000880F911D9695879597F908959FEF80EC7C
:1021B000089500240A9416161706180609060895AD
:1021C00000240A9412161306140605060895092E13
:1021D0000394000C11F4882352F0BB0F40F4BF2B82
:1021E00011F460FF04C06F5F7F4F8F4F9F4F0895C2
:1021F00057FD9058440F551F59F05F3F71F04795B8
:10220000880F97FB991F61F09F3F79F0879508959C
:10221000121613061406551FF2CF4695F1DF08C0BB
:10222000161617061806991FF1CF869571056105D8
:10223000089408950E940011A0F0BEE7B91788F431
:10224000BB279F3860F41616B11D672F782F88279B
:10225000985FF7CF869577956795B11D93959639D9
:10226000C8F30895E894BB2766277727CB0197F931
:1022700008950E94831008F48FEF08950E94511171
:102280000C94E7100E94D91038F00E94E01020F062
:10229000952311F00C94A7100C94D61011240C94D3
:1022A00033110E94F81070F3959FC1F3950F50E021
:1022B000551F629FF001729FBB27F00DB11D639FF8
:1022C000AA27F00DB11DAA1F649F6627B00DA11D9E
:1022D000661F829F2227B00DA11D621F739FB00D44
:1022E000A11D621F839FA00D611D221F749F3327B4
:1022F000A00D611D231F849F600D211D822F762F4D
:102300006A2F11249F5750409AF0F1F088234AF029
:10231000EE0FFF1FBB1F661F771F881F9150504095
:10232000A9F79E3F510580F00C94A7100C9433112F
:102330005F3FE4F3983ED4F3869577956795B7951C
:10234000F795E7959F5FC1F7FE2B880F911D969536
:10235000879597F90895EE0FFF1F881F8BBF079091
:10236000F691E02D19940E94060FB7FF0895821B85
:10237000930B0895F894FFCF00000000FC01660164
:1023800093014902C401A201B601000000009204B9
:102390006504A8053B045E044B043C0400000000F7
:1023A0002206CA071B060D0A00656E642073657459
:1023B000757000676F20313000676F203530000086
:10E000000D9489F10D94B2F10D94B2F10D94B2F129
:10E010000D94B2F10D94B2F10D94B2F10D94B2F1F0
:10E020000D94B2F10D94B2F10D94B2F10D94B2F1E0
:10E030000D94B2F10D94B2F10D94B2F10D94B2F1D0
:10E040000D94B2F10D94B2F10D94B2F10D94B2F1C0
:10E050000D94B2F10D94B2F10D94B2F10D94B2F1B0
:10E060000D94B2F10D94B2F10D94B2F10D94B2F1A0
:10E070000D94B2F10D94B2F10D94B2F10D94B2F190
:10E080000D94B2F10D94B2F10D94B2F10D94B2F180
:10E090000D94B2F10D94B2F10D94B2F10D94B2F170
:10E0A0000D94B2F10D94B2F10D94B2F10D94B2F160
:10E0B0000D94B2F10D94B2F10D94B2F10D94B2F150
:10E0C0000D94B2F10D94B2F10D94B2F10D94B2F140
:10E0D0000D94B2F10D94B2F10D94B2F10D94B2F130
:10E0E0000D94B2F141546D656761323536300041AF
:10E0F000726475696E6F206578706C6F72657220DE
:10E1000073746B3530305632206279204D4C530099
:10E11000426F6F746C6F616465723E004875683F52
:10E1200000436F6D70696C6564206F6E203D200048
:10E130004350552054797065202020203D20005FF9
:10E140005F4156525F415243485F5F3D2000415658
:10E1500052204C696243205665723D20004743437C
:10E160002056657273696F6E203D20004350552024
:10E1700049442020202020203D20004C6F7720663D
:10E18000757365202020203D20004869676820665F
:10E190007573652020203D200045787420667573D6
:10E1A00065202020203D20004C6F636B2066757336
:10E1B000652020203D20004D617220203720323024
:10E1C000313300312E362E3800342E332E350056A2
:10E1D00023202020414444522020206F7020636F70
:10E1E00064652020202020696E73747275637469E1
:10E1F0006F6E2061646472202020496E74657272B3
:10E20000757074006E6F20766563746F7200726A49
:10E210006D702020006A6D70200057686174207056
:10E220006F72743A00506F7274206E6F7420737541
:10E2300070706F72746564004D7573742062652030
:10E2400061206C6574746572002000577269747483
:10E25000696E672045450052656164696E672045B7
:10E26000450045452065727220636E743D00504F35
:10E27000525400303D5A65726F2061646472003FF1
:10E280003D43505520737461747300403D454550C3
:10E29000524F4D207465737400423D426C696E6B41
:10E2A000204C454400453D44756D70204545505215
:10E2B0004F4D00463D44756D7020464C415348001B
:10E2C000483D48656C70004C3D4C69737420492F83
:10E2D0004F20506F72747300513D51756974005234
:10E2E0003D44756D702052414D00563D73686F7707
:10E2F00020696E7465727275707420566563746FF0
:10E30000727300593D506F727420626C696E6B00BD
:10E310002A0011241FBECFEFD1E2DEBFCDBF01E046
:10E320000CBF12E0A0E0B2E0EEE1FDEF03E00BBFB6
:10E3300002C007900D92A030B107D9F712E0A0E01B
:10E34000B2E001C01D92AE30B107E1F70F9460F367
:10E350000D948DFE01E20EBF0FEF0DBF11241FBE05
:10E360000D9460F30D9400F020E030E040ED57E0B4
:10E3700005C0FA013197F1F72F5F3F4F2817390792
:10E38000C0F308959C01260F311DC901A0E0B0E043
:10E390002F5F3F4FABBFFC018791882361F08093D3
:10E3A000C6008091C00086FFFCCF8091C0008064D1
:10E3B0008093C000EACF08958DE08093C6008091DD
:10E3C000C00086FFFCCF8091C00080648093C000B5
:10E3D0008AE08093C6008091C00086FFFCCF8091C8
:10E3E000C00080648093C00008950F94C2F10F9420
:10E3F000DCF10895FC019081992359F09093C600B7
:10E400008091C00086FFFCCF8091C0008064809323
:10E41000C0003196992379F70895282F982F929567
:10E420009F70892F805D8A3308F0895F8093C600D2
:10E430008091C00086FFFCCF8091C00080648093F3
:10E44000C000822F8F70982F905D9A3308F0995FEB
:10E450009093C6008091C00086FFFCCF8091C000E1
:10E4600080648093C00008959C01FB01853691056E
:10E470001CF46330710594F0C90164E670E00F94F8
:10E480002EFE605D7F4F6093C6008091C00086FFC6
:10E49000FCCF8091C00080648093C0002B30310598
:10E4A00014F43297B4F0C90164E670E00F942EFEC4
:10E4B0006AE070E00F942EFE605D7F4F6093C600AF
:10E4C0008091C00086FFFCCF8091C0008064809363
:10E4D000C000C9016AE070E00F942EFEC0968093E0
:10E4E000C6008091C00086FFFCCF8091C000806490
:10E4F0008093C00008951F93182F8EE692EE60E07F
:10E500000F94C2F11093C6008091C00086FFFCCF2B
:10E510008091C00080648093C0000F94DCF11F9153
:10E5200008952F923F924F925F926F927F928F92B7
:10E530009F92AF92BF92CF92DF92EF92FF920F9392
:10E540001F93DF93CF93CDB7DEB762970FB6F894E2
:10E55000DEBF0FBECDBF382E622ECA01DB015C01CB
:10E560006D01772420E2222E2E010894411C511CBB
:10E570008BC081E0A81680E0B80681E0C80680E084
:10E58000D80628F0C601AA27BB270F940DF2BB2797
:10E59000AD2D9C2D8B2D0F940DF28A2D0F940DF225
:10E5A0002092C6008091C00086FFFCCF8091C00001
:10E5B00080648093C0009DE29093C6008091C0006B
:10E5C00086FFFCCF8091C00080648093C0002092C1
:10E5D000C6008091C00086FFFCCF8091C00080649F
:10E5E0008093C00019828601750188249924A1E0D6
:10E5F0003A1651F03A1620F0B2E03B1661F409C029
:10E600000BBFF701779007C0C7010F9477FE782EF4
:10E6100002C0F7017080872D0F940DF22092C60082
:10E620008091C00086FFFCCF8091C0008064809301
:10E63000C000872D8052F401EF70F0708F3520F408
:10E64000E40DF51D708204C0E40DF51D8EE280839B
:10E650000894E11CF11C011D111D0894811C911CE2
:10E6600090E18916910409F0C2CF80E190E0A0E02A
:10E67000B0E0A80EB91ECA1EDB1E198AC2010F9493
:10E68000FAF10F94DCF16A94662009F072CF629679
:10E690000FB6F894DEBF0FBECDBFCF91DF911F91B3
:10E6A0000F91FF90EF90DF90CF90BF90AF909F9031
:10E6B0008F907F906F905F904F903F902F90089534
:10E6C0002F923F924F925F926F927F928F929F9282
:10E6D000AF92BF92CF92DF92EF92FF920F931F9370
:10E6E000DF93CF93CDB7DEB7CD53D1400FB6F894BB
:10E6F000DEBF0FBECDBF01E20EBF0FEF0DBF94B75F
:10E70000F894A89514BE80916000886180936000A1
:10E7100010926000789493FF05C0E0910002F091A0
:10E7200001021995279A2F9A8091C00082608093E8
:10E73000C00080E18093C40088E18093C1000000A4
:10E74000EE24FF24870144E0A42EB12CCC24DD2448
:10E7500024C0C5010197F1F70894E11CF11C011DCB
:10E76000111D21E2E2162EE4F20620E0020720E06D
:10E77000120718F031E0C32ED12CC801B70127ECE5
:10E780003BE140E050E00F9441FE611571058105C9
:10E79000910519F485B1805885B98091C00087FD35
:10E7A00003C0C114D104A9F2A6014F5F5F4FC25E3E
:10E7B000DE4F59834883CE51D140C25EDE4F8881FF
:10E7C0009981CE51D140019711F00D9410FEC05D9A
:10E7D000DE4F19821882C053D14060E0C15DDE4F28
:10E7E0001882CF52D14088249924C35DDE4F19820C
:10E7F0001882CD52D140C05EDE4F188219821A8233
:10E800001B82C052D140CE5CDE4F188219821A8220
:10E810001B82C253D140EE24FF2487010BBFF701B6
:10E8200007911691C45CDE4F19830883CC53D14005
:10E830000D940BFEC25EDE4F28813981CE51D1404E
:10E840002130310509F52091C600C25EDE4F1982E4
:10E850001882CE51D14022C02F5F3F4F4F4F5F4FA4
:10E86000213082E138078AE7480780E0580780F0C6
:10E87000C45CDE4FE881F981CC53D140EF5FFF4F9C
:10E8800019F0EE27FF27099420E030E040E050E047
:10E890008091C00087FFE0CF2091C600C35DDE4FAE
:10E8A00048815981CD52D1404F5F5F4FC35DDE4FEC
:10E8B00059834883CD52D140213209F063C64A3092
:10E8C000510508F05FC60894811C911C53E0851621
:10E8D000910409F059C600E010E018C081E280936D
:10E8E000C6008091C00086FFFCCF8091C00080648C
:10E8F0008093C0002F5F3F4F2931310579F70F9486
:10E90000DCF10F5F1F4F0530110519F020E030E0FA
:10E91000E5CF10920A0210920B0210920C02109294
:10E920000D02109206021092070210920802109235
:10E930000902109202021092030210920402109235
:10E9400005028FEE90EE60E00F94F5F180E191EE1C
:10E9500060E00F94C2F18091C00087FFFCCF9091DE
:10E96000C600903608F09F759032B8F09093C600BC
:10E970008091C00086FFFCCF8091C00080648093AE
:10E98000C000A0E2A093C6008091C00086FFFCCF2B
:10E990008091C00080648093C000983409F4D7C18E
:10E9A0009934B8F4923409F459C1933458F490333B
:10E9B00019F1903308F4E3C59F33A1F1903409F0C5
:10E9C000DEC5BDC0953409F470C1963409F0D7C5D1
:10E9D00098C1923509F42BC2933538F49C3409F46C
:10E9E000F5C1913509F0CBC518C2963509F445C279
:10E9F000993509F0C4C567C483E792EE62E00F94CD
:10EA0000F5F110920602109207021092080210927D
:10EA1000090210920A0210920B0210920C0210923C
:10EA20000D0213C18FE792EE62E00F94F5F18FEEC5
:10EA300090EE60E00F94F5F181E291EE60E00F94CA
:10EA4000C2F187EB91EE60E00F94F5F180E391EE77
:10EA500060E00F94C2F184EE90EE60E00F94F5F167
:10EA60008FE391EE60E00F94C2F186E090E061E008
:10EA700070E00F9434F20F94DCF18DE591EE60E0DC
:10EA80000F94C2F189EC91EE60E00F94F5F18EE401
:10EA900091EE60E00F94C2F183EC91EE60E00F9490
:10EAA000F5F18CE691EE60E00F94C2F18EE10F94E7
:10EAB0000DF288E90F940DF281E00F940DF20F949E
:10EAC000DCF18BE791EE60E00F94C2F119E0E0E039
:10EAD000F0E010935700E4918E2F0F940DF20F94F5
:10EAE000DCF18AE891EE60E00F94C2F1E3E0F0E03F
:10EAF00010935700E4918E2F0F940DF20F94DCF1D8
:10EB000089E991EE60E00F94C2F1E2E0F0E0109349
:10EB10005700E4918E2F0F940DF20F94DCF188EAE8
:10EB200091EE60E00F94C2F1E1E0F0E01093570045
:10EB30001491812F0F940DF20F94DCF107CF8BE825
:10EB400092EE62E00F94F5F18BE492EE60E00F94A8
:10EB5000F5F10F94DCF100E010E019C0C8016F2D51
:10EB60000F947FFEFF2031F489E492EE60E00F9471
:10EB7000C2F10BC0F092C6008091C00086FFFCCFAE
:10EB80008091C00080648093C0000F5F1F4FC80158
:10EB900081519F41A0E0B0E0ABBFFC01F790BAE229
:10EBA000FB1621F0E2E000301E07C1F60F94DCF105
:10EBB0000F94DCF187E592EE60E00F94F5F10F948D
:10EBC000DCF1CC24DD2400E010E01EC0C8010F946D
:10EBD00077FEF82E882331F489E492EE60E00F94FA
:10EBE000C2F10BC08093C6008091C00086FFFCCFAD
:10EBF0008091C00080648093C000FE1419F00894D6
:10EC0000C11CD11C0F5F1F4FC80181519F41A0E063
:10EC1000B0E0ABBFFC01E790FAE2EF1621F022E092
:10EC20000030120799F60F94DCF10F94DCF182E6C4
:10EC300092EE60E00F94C2F1C60161E070E00F94C3
:10EC400034F20F94DCF10F94DCF110920202109276
:10EC50000302109204021092050278CE89E992EE26
:10EC600062E00F94F5F1279A2F9A16C02F9880E052
:10EC700090E0E0EDF7E03197F1F7019684369105E9
:10EC8000C1F72F9A80E090E0E0EDF7E03197F1F7DF
:10EC9000019684369105C1F78091C00087FFE6CFC9
:10ECA0008091C00087FFFCCF64C485EA92EE62E0E9
:10ECB0000F94F5F140910202509103026091040219
:10ECC0007091050281E020E10F9491F2809102029F
:10ECD00090910302A0910402B091050280509F4FD1
:10ECE000AF4FBF4F8093020290930302A0930402A0
:10ECF000B093050280509041A040B04008F426CE69
:10ED0000A4CF83EB92EE62E00F94F5F140910602FE
:10ED100050910702609108027091090280E020E1A1
:10ED20000F9491F28091060290910702A09108023F
:10ED3000B091090280509F4FAF4FBF4F80930602A2
:10ED400090930702A0930802B0930902FFCD80ECD4
:10ED500092EE62E00F94F5F183E792EE60E00F949B
:10ED6000F5F18FE792EE60E00F94F5F18BE892EE0B
:10ED700060E00F94F5F189E992EE60E00F94F5F10F
:10ED800085EA92EE60E00F94F5F183EB92EE60E09D
:10ED90000F94F5F180EC92EE60E00F94F5F187ECC2
:10EDA00092EE60E00F94F5F188ED92EE60E00F9442
:10EDB000F5F18FED92EE60E00F94F5F18AEE92EEB0
:10EDC00060E00F94F5F183E093EEBDCD87EC92EE19
:10EDD00062E00F94F5F181E40F947BF282E40F94EA
:10EDE0007BF283E40F947BF284E40F947BF285E45E
:10EDF0000F947BF286E40F947BF287E40F947BF20E
:10EE000088E40F947BF28AE40F947BF28BE40F94F6
:10EE10007BF28CE40F947BF299CD88ED92EE62E068
:10EE20000F94F5F1772473948824992409C48FED05
:10EE300092EE62E00F94F5F140910A0250910B02BC
:10EE400060910C0270910D0282E020E10F9491F22A
:10EE500080910A0290910B02A0910C02B0910D02D8
:10EE600080509F4FAF4FBF4F80930A0290930B0289
:10EE7000A0930C02B0930D0269CD8AEE92EE62E08F
:10EE80000F94F5F184EE90EE60E00F94F5F18FECC5
:10EE900091EE60E00F94F5F1662477244301CC5D98
:10EEA000DE4F19821882C452D140D401C301B695F5
:10EEB000A79597958795CA5DDE4F88839983AA8326
:10EEC000BB83C652D140CC5DDE4FA881B981C4520C
:10EED000D1401196CC5DDE4FB983A883C452D14096
:10EEE000CD0162E070E00F9434F2B0E2B093C6005E
:10EEF0008091C00086FFFCCF8091C0008064809329
:10EF0000C000EDE2E093C6008091C00086FFFCCF18
:10EF10008091C00080648093C000F0E2F093C6004E
:10EF20008091C00086FFFCCF8091C00080648093F8
:10EF3000C000CA5DDE4FE880F9800A811B81C6529D
:10EF4000D140BB27A12F902F8F2D0F940DF2CA5DBA
:10EF5000DE4F8881C652D1400F940DF2B0E2FB2EF5
:10EF6000F092C6008091C00086FFFCCF8091C00067
:10EF700080648093C0000DE30093C6008091C000C0
:10EF800086FFFCCF8091C00080648093C00010E2B7
:10EF90001093C6008091C00086FFFCCF8091C00016
:10EFA00080648093C0008BBEF3012791C65DDE4F65
:10EFB0002883CA52D140A22EBB24CC24DD2408943D
:10EFC000611C711C811C911C8BBEF3018791282E42
:10EFD0003324442455240894611C711C811C911C09
:10EFE0008BBEF3013791C55DDE4F3883CB52D140E4
:10EFF0000894611C711C811C911C8BBEF30147910C
:10F00000C45DDE4F4883CC52D140ADEFEA2EAFEF66
:10F01000FA2EAFEF0A2FAFEF1A2F6E0C7F1C801E57
:10F02000911E142D032DF22CEE24EA0CFB1C0C1D5A
:10F030001D1D0F940DF220E22093C6008091C000A8
:10F0400086FFFCCF8091C00080648093C000C65DC5
:10F05000DE4F8881CA52D1400F940DF230E23093D6
:10F06000C6008091C00086FFFCCF8091C000806404
:10F070008093C000C45DDE4F8881CC52D1400F9494
:10F080000DF240E24093C6008091C00086FFFCCFA5
:10F090008091C00080648093C000C55DDE4F888190
:10F0A000CB52D1400F940DF250E25093C6008091A4
:10F0B000C00086FFFCCF8091C00080648093C000B8
:10F0C0008FEFE8168FEFF80680E0080780E018075A
:10F0D00031F484E092EE60E00F94C2F1DFC0D80119
:10F0E000C7018070907CA070B0708050904CA040A0
:10F0F000B040D1F52FEF3FE340E050E0E222F322B1
:10F1000004231523CA5DDE4FA880B980CA80DB8046
:10F11000C652D140AE0CBF1CC01ED11EAA0CBB1CD7
:10F12000CC1CDD1C8EE092EE60E00F94C2F1BB2798
:10F13000A12F902F8F2D0F940DF28E2D0F940DF285
:10F1400030E23093C6008091C00086FFFCCF8091F2
:10F15000C00080648093C0004EE34093C60080915D
:10F16000C00086FFFCCF87C08EE09EEFA0E0B0E03D
:10F17000E822F9220A231B239CE0E91694E9F90608
:10F1800090E0090790E0190709F088C0C45DDE4FE0
:10F19000A881CC52D140EA2EFF2400E010E0102FCD
:10F1A0000F2DFE2CEE24C55DDE4FB881CB52D14031
:10F1B000EB0EF11C011D111DD601C501817090706F
:10F1C000A070B070DC0199278827E80EF91E0A1F8D
:10F1D0001B1F20EF30E040E050E0A222B322C42207
:10F1E000D52241E1AA0CBB1CCC1CDD1C4A95D1F7F1
:10F1F000EA0CFB1C0C1D1D1D81E090E0A0E0B0E0BE
:10F20000282239224A225B2235E1220C331C441C7D
:10F21000551C3A95D1F7E20CF31C041D151D57013E
:10F220006801AA0CBB1CCC1CDD1C85E192EE60E0E1
:10F230000F94C2F1C801AA27BB270F940DF2BB2778
:10F24000A12F902F8F2D0F940DF28E2D0F940DF274
:10F2500090E29093C6008091C00086FFFCCF809121
:10F26000C00080648093C000AEE3A093C60080918C
:10F27000C00086FFFCCF8091C00080648093C000F6
:10F28000C601AA27BB270F940DF2BB27AD2D9C2DDD
:10F290008B2D0F940DF28A2D0F940DF20F94DCF14B
:10F2A000CC5DDE4FE881F981C452D140F99709F471
:10F2B0004DCBF4E0EF2EF12C012D112D6E0C7F1CA7
:10F2C000801E911EF2CD83E093EE62E00F94F5F183
:10F2D0008AE192EE60E00F94C2F18091C00087FF56
:10F2E000FCCF1091C6001F751093C6008091C0001E
:10F2F00086FFFCCF8091C00080648093C0000F9493
:10F30000DCF1812F81548A3108F036C1163409F4BA
:10F3100095C0173490F4133409F44EC0143430F40B
:10F320001134F1F0123409F01DC130C0143409F465
:10F3300059C0153409F016C16BC01A3409F4C4C0A1
:10F340001B3438F4173409F48FC0183409F00AC19B
:10F35000A1C01B3409F4D2C01C3409F003C1E8C0B9
:10F360008FEF81B90DC082B1809582B980E090E0C5
:10F37000E0EDF7E03197F1F70196883C9105C1F790
:10F380008091C00087FFEFCF12B8EFC08FEF84B934
:10F390000DC085B1809585B980E090E0E0EDF7E0A3
:10F3A0003197F1F70196883C9105C1F78091C00033
:10F3B00087FFEFCF15B8D9C08FEF87B90DC088B1DF
:10F3C000809588B980E090E0E0EDF7E03197F1F7C3
:10F3D0000196883C9105C1F78091C00087FFEFCF6F
:10F3E00018B8C3C08FEF8AB90DC08BB180958BB9A7
:10F3F00080E090E0E0EDF7E03197F1F70196883C8E
:10F400009105C1F78091C00087FFEFCF1BB8ADC059
:10F410008FEF8DB90DC08EB180958EB980E090E0F0
:10F42000E0EDF7E03197F1F70196883C9105C1F7DF
:10F430008091C00087FFEFCF1EB897C08FEF80BBD1
:10F440000DC081B3809581BB80E090E0E0EDF7E0F6
:10F450003197F1F70196883C9105C1F78091C00082
:10F4600087FFEFCF11BA81C08FEF83BB0DC084B38C
:10F47000809584BB80E090E0E0EDF7E03197F1F714
:10F480000196883C9105C1F78091C00087FFEFCFBE
:10F4900014BA6BC08FEF809301010FC080910201FD
:10F4A00080958093020180E090E0E0EDF7E03197F5
:10F4B000F1F70196883C9105C1F78091C00087FF64
:10F4C000EDCF1092020151C08FEF809304010FC065
:10F4D0008091050180958093050180E090E0E0ED4A
:10F4E000F7E03197F1F70196883C9105C1F78091DB
:10F4F000C00087FFEDCF1092050137C08FEF8093DA
:10F5000007010FC08091080180958093080180E079
:10F5100090E0E0EDF7E03197F1F70196883C910536
:10F52000C1F78091C00087FFEDCF109208011DC088
:10F530008FEF80930A010FC080910B01809580931B
:10F540000B0180E090E0E0EDF7E03197F1F70196F4
:10F55000883C9105C1F78091C00087FFEDCF1092E4
:10F560000B0103C085E292EEEEC98091C00087FFD7
:10F57000FCCF8091C600EAC988E392EEE4C98CE131
:10F5800091EEE1C988249924933011F1943028F444
:10F59000913089F09230B8F408C0953061F195301F
:10F5A000F0F0963009F048C043C02B3109F042C951
:10F5B00091E06BE13FC96227C15DDE4F2883CF52E6
:10F5C000D14092E037C9B22FA0E0622793E032C960
:10F5D000822F90E0A82BB92B622794E02BC92E3004
:10F5E00009F039C3622795E0C05DDE4F19821882A9
:10F5F000C053D1401FC9E1E0F0E0EC0FFD1FC05D3A
:10F60000DE4F08811981C053D140E00FF11F2083E4
:10F610000F5F1F4FC05DDE4F19830883C053D14079
:10F6200062270A171B0709F005C9D80196E002C92D
:10F63000261709F010C303C0973009F0FBC87724E0
:10F640009981933109F412C19431C8F4963009F4C8
:10F65000D8C0973050F4923009F406C1933009F4C1
:10F660006DC0913009F059C253C0913109F477C08F
:10F67000923108F0BBC0903109F04FC2F5C098310B
:10F6800009F487C0993150F4953109F4EFC09531F0
:10F6900008F4C6C1963109F040C2C2C19A3109F4DA
:10F6A0006CC09A3108F491C09B3109F45BC09D3164
:10F6B00009F033C29D81903359F48F81882311F46E
:10F6C0009EE11CC0813011F091E018C098E916C08D
:10F6D000892F807591F0903539F4E0E0F0E089E011
:10F6E0008093570094910AC0983539F4E3E0F0E034
:10F6F00089E080935700949101C090E01A821B82A8
:10F700008D818C831D829E831F8227E030E009C299
:10F710001A8288E08B8381E48C8386E58D8382E581
:10F720008E8389E48F8383E5888780E589878FE5E9
:10F730008A8782E38B872BE030E0F3C18A818139AD
:10F7400041F0823941F0803911F48FE005C080E04A
:10F7500003C082E001C08AE01A828B8344C0772410
:10F76000739482C08D81882311F48EE12CC0813086
:10F7700011F081E028C088E926C01A82E1E0F0E0BB
:10F7800089E08093570084918B831C8224E030E0D1
:10F79000C8C18B81803589F48C81883039F4E2E0EE
:10F7A000F0E089E08093570084910DC0E0E0F0E044
:10F7B00089E080935700849106C0E3E0F0E089E09F
:10F7C0008093570084911A82DFCF8D81836C99E0FA
:10F7D000E1E0F0E0082E90935700E89507B600FCB2
:10F7E000FDCF1A821B8223E030E09BC180EC8A832C
:10F7F000CE5CDE4F188219821A821B82C253D1401E
:10F800008EC18A8190E0A0E0B0E0582F44273327D2
:10F8100022278B8190E0A0E0B0E0DC0199278827C7
:10F82000282B392B4A2B5B2B8D8190E0A0E0B0E098
:10F83000282B392B4A2B5B2B8C8190E0A0E0B0E089
:10F84000BA2FA92F982F8827282B392B4A2B5B2BCF
:10F85000220F331F441F551FC05EDE4F288339839C
:10F860004A835B83C052D1401A8259C13A81C95C34
:10F87000DE4F3883C753D140CA5CDE4F1882C6536F
:10F88000D1408B81C82EDD24CA5CDE4F488159816E
:10F89000C653D140C42AD52A933109F082C0CE5C28
:10F8A000DE4F88819981AA81BB81C253D1408050AB
:10F8B000904CA340B04030F583E0CE5CDE4FE88052
:10F8C000F9800A811B81C253D140F70100935B008C
:10F8D00080935700E89507B600FCFDCFCE5CDE4F65
:10F8E000088119812A813B81C253D14000501F4FAA
:10F8F0002F4F3F4FCE5CDE4F088319832A833B8313
:10F90000C253D140C05EDE4F488159816A817B81FC
:10F91000C052D140DE011B9631E08C9111962C91A2
:10F9200011971296C75CDE4F2883C953D140C85C3B
:10F93000DE4F1882C853D14090E0C85CDE4FE881AA
:10F94000F981C853D1408E2B9F2B0C01FA01609393
:10F950005B0030935700E89511244E5F5F4F6F4F67
:10F960007F4F0EEFE02E0FEFF02ECE0CDF1CC114F8
:10F97000D10499F685E0C05EDE4F088119812A81A5
:10F980003B81C052D140F80120935B008093570027
:10F99000E89507B600FCFDCF81E180935700E8951C
:10F9A00035C0C05EDE4F88819981AA81BB81C0527B
:10F9B000D140B695A795979587957C018601ABE0D8
:10F9C000AA2EB12CAC0EBD1E0BC0D5016D915D01F0
:10F9D000C7010F947FFE0894E11CF11C01501040F8
:10F9E0000115110591F7A60160E070E0440F551F65
:10F9F000661F771FC05EDE4FE880F9800A811B8199
:10FA0000C052D1404E0D5F1D601F711F1A82C05E33
:10FA1000DE4F488359836A837B83C052D1407FC0C5
:10FA2000FA80C55CDE4FF882CB53D140C65CDE4F16
:10FA30001882CA53D1408B81C82EDD24C65CDE4FAC
:10FA400008811981CA53D140C02AD12A1A828981DA
:10FA5000BE016D5F7F4F843121F59601C05EDE4FA0
:10FA6000E880F9800A811B81C052D1400BBFF701A9
:10FA700087919691DB018C9311969C936E5F7F4FDB
:10FA8000D801C7010296A11DB11DC05EDE4F88835B
:10FA90009983AA83BB83C052D14022503040F1F6F3
:10FAA00036C0C05EDE4F288139814A815B81C052F9
:10FAB000D1400894C108D108760100E010E0089414
:10FAC000C11CD11C0894E11CF11C011D111DE20E8A
:10FAD000F31E041F151F21BDBB27A52F942F832FB5
:10FAE00082BD2F5F3F4F4F4F5F4FF89A80B5DB01CC
:10FAF0008D93BD012E153F054007510761F7C05E8C
:10FB0000DE4F288339834A835B83C052D1409601FC
:10FB10002D5F3F4FFB01108204C080EC8A8322E0FE
:10FB200030E08BE18093C6008091C00086FFFCCF5F
:10FB30008091C00080648093C000C15DDE4FF88179
:10FB4000CF52D140F093C6008091C00086FFFCCF19
:10FB50008091C00080648093C000432F3093C60022
:10FB60008091C00086FFFCCF8091C00080648093AC
:10FB7000C000922F2093C6008091C00086FFFCCF6A
:10FB80008091C00080648093C0008EE08093C600A6
:10FB90008091C00086FFFCCF8091C000806480937C
:10FBA000C00065E1C15DDE4FE880CF52D1406E25D7
:10FBB00069276427FE01319610C090819093C6009A
:10FBC0008091C00086FFFCCF31968091C000806498
:10FBD0008093C0006927215030402115310569F715
:10FBE0006093C6008091C00086FFFCCF8091C0006A
:10FBF00080648093C00085B1805885B9772081F4F6
:10FC0000C15DDE4F0881CF52D1400F5FC15DDE4F35
:10FC10000883CF52D14090E0A0E0B0E00D941AF4F8
:10FC200027982F9880E090E020ED37E0F901319798
:10FC3000F1F7019684369105C9F700008091C00064
:10FC40008D7F8093C00081E180935700E895EE2777
:10FC5000FF270994FFCF90E00D941AF497FB092E2B
:10FC600007260AD077FD04D02ED006D000201AF443
:10FC7000709561957F4F0895F6F7909581959F4F08
:10FC80000895A1E21A2EAA1BBB1BFD010DC0AA1FDD
:10FC9000BB1FEE1FFF1FA217B307E407F50720F0F5
:10FCA000A21BB30BE40BF50B661F771F881F991F70
:10FCB0001A9469F760957095809590959B01AC01B9
:10FCC000BD01CF010895AA1BBB1B51E107C0AA1FAC
:10FCD000BB1FA617B70710F0A61BB70B881F991FED
:10FCE0005A95A9F780959095BC01CD010895F99991
:10FCF000FECF92BD81BDF89A992780B50895262F31
:10FD0000F999FECF1FBA92BD81BD20BD0FB6F89400
:0EFD1000FA9AF99A0FBE01960895F894FFCF63
:00000001FF
