:100000000C9493010C94F8060C94CD060C94A20663
:100010000C9477060C944C060C9421060C94F6056F
:100020000C94CB050C94C4010C94C4010C94C40131
:100030000C94C4010C94C4010C94C4010C94C4012C
:100040000C94C4010C94C4010C94C4010C94C4011C
:100050000C94C4010C94C4010C94C4010C9481054B
:100060000C94C4010C944D070C9423070C94C40108
:100070000C94C4010C94C4010C94C4010C94C401EC
:100080000C94C4010C94C4010C94C4010C94C401DC
:100090000C94C4010C94C4010C94C4010C94F10B95
:1000A0000C94C4010C94C4010C94C4010C94C401BC
:1000B0000C94C4010C94C4010C94C4010C94C401AC
:1000C0000C94C4010C94C4010C94C4010C94C4019C
:1000D0000C94C4010C94C4010C94C4010C94C4018C
:1000E0000C94C4010F021202010205020B02490224
:1000F00016021A022002240228022E0232023602BE
:1001000049023C0240024402A807AD07B207BC07FF
:10011000C6073F08D007D807E007EA07F407FE073D
:100120000D0817083F0821082B0835080C94120207
:100130000C9458030C9420020C94C8010C94F407FE
:100140000C94B3030C9432020C94E0070C94FE0759
:100150000C949F020C9435080C9428020C946D0E9C
:100160000C94B1020C940B020C94D0070C94E30392
:100170000C94A8070C9474020C94EC010C942B08BA
:100180000C943C020C941A020C94EA070C94C607D7
:100190000C9405020C9440040C9473020C944902D4
:1001A0000C94AD070C940D080C94C9010C944002FA
:1001B0000C94A2020C9413040C94B2070C94D80172
:1001C0000C940B030C9424020C9421080C94C5028B
:1001D0000C943F080C94C7010C9436020C94010255
:1001E0000C94BC070C94C6010C9444020C94D302EA
:1001F0000C942E020C9416020C940F020C94D80747
:100200000C94170800002100240027002A002D006C
:100210003000330001010000040107010A01000061
:100220002200250028002B002E003100340002019E
:100230000000050108010B0100002000230026003A
:1002400029002C002F0032000001000003010601EC
:10025000090105050505070508080808020202024C
:100260000A0A080804040404010101010101010152
:100270000303030303030303040707070C0C0C0C1D
:100280000C0C0C0C02020202060606060606060606
:100290000B0B0B0B0B0B0B0B010210202008081093
:1002A00020401020408002010201080402010102E6
:1002B00004081020408080402010080402018004BF
:1002C000020180402010080402010804020101021A
:1002D0000408102040800102040810204080000023
:1002E0000A0B02090C0D0E080703040100000000B0
:1002F00000000000000000000000000000000000FE
:1003000000000000000000000000121110000000BA
:1003100000000000000000000000000000000000DD
:10032000000000006D0E11241FBECFEFD1E2DEBF32
:10033000CDBF00E00CBF12E0A0E0B2E0E2E3F2E2E9
:1003400000E00BBF02C007900D92A433B107D9F7AC
:1003500023E0A4E3B2E001C01D92AB3AB207E1F79B
:1003600011E0C3E9D1E000E006C021970109802F28
:10037000FE010E94D30EC239D10780E00807A9F719
:100380000E94230D0C9417110C94000008950895F9
:100390000895E091460280914502E81730F4F0E0BC
:1003A000E95BFD4F808190E008958FEF9FEF089506
:1003B0009091460280914502981750F4E92FF0E0A1
:1003C000E95BFD4F208130E09F5F9093460202C0C1
:1003D0002FEF3FEFC90108958091450290E02091F1
:1003E0004602821B9109089590E0FC013197E231A9
:1003F000F10508F04EC08827EE58FF4F8F4F0C9440
:10040000D30E809180008F7703C0809180008F7D14
:1004100080938000089580918000877FF9CF84B514
:100420008F7702C084B58F7D84BD08958091B00020
:100430008F7703C08091B0008F7D8093B0000895C6
:10044000809190008F7707C0809190008F7D03C0CE
:1004500080919000877F8093900008958091A00004
:100460008F7707C08091A0008F7D03C08091A0008E
:10047000877F8093A0000895809120018F7707C027
:10048000809120018F7D03C080912001877F809320
:1004900020010895CF93DF93282F30E0F901E25235
:1004A000FD4F8491F901E856FD4FD491F901EE5AC0
:1004B000FD4FC491CC2391F081110E94F401EC2FE7
:1004C000F0E0EE0FFF1FE85CFD4FA591B491EC91B9
:1004D000ED2381E090E021F480E002C080E090E034
:1004E000DF91CF9108950895CF92DF92EF92FF921E
:1004F0000F931F93CF93DF936C017A018B01C0E0C0
:10050000D0E0CE15DF0581F0D8016D918D01D601C7
:10051000ED91FC910190F081E02DC6011995892B98
:1005200011F02196EECF7E01C701DF91CF911F918F
:100530000F91FF90EF90DF90CF900895089580E0A5
:1005400090E00895FC01538D448D252F30E0842FD9
:1005500090E0821B930B541710F0CF9608950197EB
:100560000895FC01918D828D981761F0828DDF01D5
:10057000A80FB11D5D968C91928D9F5F9F73928F96
:1005800090E008958FEF9FEF0895FC01918D828D8B
:10059000981731F0828DE80FF11D858D90E0089558
:1005A0008FEF9FEF0895FC01918D228D892F90E0B0
:1005B000805C9F4F821B91098F73992708958AE869
:1005C00092E00E94D30221E0892B09F420E0822FDF
:1005D0000895FC01848DDF01A80FB11DA35ABF4F00
:1005E0002C91848D90E001968F739927848FA68932
:1005F000B7892C93A089B1898C91837080648C9386
:10060000938D848D981306C00288F389E02D808134
:100610008F7D80830895EF92FF920F931F93CF9366
:10062000DF93EC0181E0888F9B8D8C8D981305C042
:10063000E889F989808185FD26C0F62E0B8D10E0B2
:100640000F5F1F4F0F731127E02E8C8DE8120CC027
:100650000FB607FCFACFE889F989808185FFF5CFCD
:10066000CE010E94E902F1CF8B8DFE01E80FF11D52
:10067000E35AFF4FF0829FB7F8940B8FEA89FB890A
:10068000808180620AC09FB7F894EE89FF896083F9
:10069000E889F98980818370806480839FBF81E0CD
:1006A00090E0DF91CF911F910F91FF90EF9008950F
:1006B000CF93DF93EC01888D8823C9F0EA89FB8909
:1006C000808185FD05C0A889B9898C9186FD0FC000
:1006D0000FB607FCF5CF808185FFF2CFA889B989D5
:1006E0008C9185FFEDCFCE010E94E902E7CFDF912B
:1006F000CF91089580E090E0892B21F00E94DF02E5
:10070000811125C080E090E0892B41F080E090E0ED
:10071000892B21F00E94000081111CC080E090E034
:10072000892B41F080E090E0892B21F00E940000AD
:10073000811113C080E090E0892BA1F080E090E06F
:10074000892B81F00E94000081110AC008950E9447
:100750000000D8CF0E940000E1CF0E940000EACF45
:100760000C940000089582E10E944A02019731F43E
:1007700083E10E944A02019791F405C083E10E943F
:100780004A02892B61F48091340290913502A09144
:100790003602B09137020196A11DB11D0BC08091A8
:1007A000340290913502A0913602B0913702019740
:1007B000A109B1098093340290933502A0933602C7
:1007C000B0933702089583E10E944A02019731F401
:1007D00082E10E944A02892B91F405C082E10E94C5
:1007E0004A02019761F48091340290913502A09100
:1007F0003602B09137020196A11DB11D0BC0809148
:10080000340290913502A0913602B09137020197DF
:10081000A109B1098093340290933502A093360266
:10082000B09337020895CF92DF92EF92FF920F9329
:100830001F93CF93DF937C01CB018A012091670244
:10084000222389F0EB016B01C40ED51ECC15DD050A
:1008500069F06991D701ED91FC910190F081E02D53
:10086000C7011995F3CF642F0E94B008C801DF912A
:10087000CF911F910F91FF90EF90DF90CF9008954F
:10088000CF93DF931F92CDB7DEB7698320916702C4
:100890002223D1F020918902203240F021E030E083
:1008A000FC013383228380E090E015C080916802D0
:1008B000E82FF0E0E759FD4F998190838F5F809397
:1008C00068028093890205C061E0CE0101960E9412
:1008D000B00881E090E00F90DF91CF9108950E94E1
:1008E00012111F93CF93DF93282F30E0F901E252CA
:1008F000FD4F8491F901E856FD4FD491F901EE5A6C
:10090000FD4FC491CC23C1F0162F81110E94F40138
:10091000EC2FF0E0EE0FFF1FE25EFD4FA591B491CA
:100920009FB7F894111104C08C91D095D82302C0C0
:10093000EC91DE2BDC939FBFDF91CF911F91089547
:10094000CF93DF93EC018F3F910509F044F4C13060
:100950008FEFD8072CF11C161D068CF402C0CFEFC8
:10096000D0E061E088E10E94710461E089E10E94C9
:10097000710460E08AE10E947104CE0123C02097D7
:1009800089F461E088E10E94710461E089E10E94DC
:10099000710461E08AE10E94710480E090E012C07D
:1009A000C1E0DFEF61E088E10E94710460E089E16D
:1009B0000E94710461E08AE10E94710488279927EE
:1009C0008C1B9D0BDF91CF910C948307CF93DF930A
:1009D00090E0FC01E856FD4F2491FC01EE5AFD4FDA
:1009E0008491882361F190E0880F991FFC01EC5FEE
:1009F000FD4FC591D491FC01E25EFD4FA591B491EC
:100A0000611109C09FB7F89488812095822388835B
:100A1000EC912E230BC0623061F49FB7F89488816B
:100A2000322F309583238883EC912E2B2C939FBFFC
:100A300006C08FB7F894E8812E2B28838FBFDF91F3
:100A4000CF9108953FB7F89480913D0290913E0276
:100A5000A0913F02B091400226B5A89B05C02F3F50
:100A600019F00196A11DB11D3FBFBA2FA92F982FD4
:100A70008827820F911DA11DB11DBC01CD0142E04F
:100A8000660F771F881F991F4A95D1F708958F9297
:100A90009F92AF92BF92CF92DF92EF92FF926B0143
:100AA0007C010E9422054B015C01C114D104E104C8
:100AB000F104F1F00E942205DC01CB0188199909AB
:100AC000AA09BB09883E9340A105B10570F321E056
:100AD000C21AD108E108F10888EE880E83E0981E5A
:100AE000A11CB11CC114D104E104F10419F7DDCF3C
:100AF000FF90EF90DF90CF90BF90AF909F908F903E
:100B000008951F920F920FB60F9211242F933F93C7
:100B10008F939F93AF93BF938091390290913A0244
:100B2000A0913B02B0913C023091380223E0230FA8
:100B30002D3720F40196A11DB11D05C026E8230F15
:100B40000296A11DB11D2093380280933902909323
:100B50003A02A0933B02B0933C0280913D029091F7
:100B60003E02A0913F02B09140020196A11DB11D2D
:100B700080933D0290933E02A0933F02B0934002C7
:100B8000BF91AF919F918F913F912F910F900FBE89
:100B90000F901F9018951F920F920FB60F9211246D
:100BA0000BB60F922F933F934F935F936F937F9367
:100BB0008F939F93AF93BF93EF93FF93E0910E02B8
:100BC000F0910F021995FF91EF91BF91AF919F9115
:100BD0008F917F916F915F914F913F912F910F90E6
:100BE0000BBE0F900FBE0F901F9018951F920F9283
:100BF0000FB60F9211240BB60F922F933F934F9382
:100C00005F936F937F938F939F93AF93BF93EF9374
:100C1000FF93E0910C02F0910D021995FF91EF9175
:100C2000BF91AF919F918F917F916F915F914F9104
:100C30003F912F910F900BBE0F900FBE0F901F9002
:100C400018951F920F920FB60F9211240BB60F92A8
:100C50002F933F934F935F936F937F938F939F93C4
:100C6000AF93BF93EF93FF93E0910202F0910302E1
:100C70001995FF91EF91BF91AF919F918F917F91C6
:100C80006F915F914F913F912F910F900BBE0F90FD
:100C90000FBE0F901F9018951F920F920FB60F92D4
:100CA00011240BB60F922F933F934F935F936F9343
:100CB0007F938F939F93AF93BF93EF93FF93E091B5
:100CC0000002F09101021995FF91EF91BF91AF9150
:100CD0009F918F917F916F915F914F913F912F9154
:100CE0000F900BBE0F900FBE0F901F9018951F9284
:100CF0000F920FB60F9211240BB60F922F933F93C2
:100D00004F935F936F937F938F939F93AF93BF9313
:100D1000EF93FF93E0910A02F0910B021995FF9176
:100D2000EF91BF91AF919F918F917F916F915F9163
:100D30004F913F912F910F900BBE0F900FBE0F90D0
:100D40001F9018951F920F920FB60F9211240BB699
:100D50000F922F933F934F935F936F937F938F9354
:100D60009F93AF93BF93EF93FF93E0910802F091AD
:100D700009021995FF91EF91BF91AF919F918F91CA
:100D80007F916F915F914F913F912F910F900BBE8B
:100D90000F900FBE0F901F9018951F920F920FB6D5
:100DA0000F9211240BB60F922F933F934F935F93A3
:100DB0006F937F938F939F93AF93BF93EF93FF9323
:100DC000E0910602F09107021995FF91EF91BF9112
:100DD000AF919F918F917F916F915F914F913F91D3
:100DE0002F910F900BBE0F900FBE0F901F90189574
:100DF0001F920F920FB60F9211240BB60F922F93E2
:100E00003F934F935F936F937F938F939F93AF9392
:100E1000BF93EF93FF93E0910402F09105021995BF
:100E2000FF91EF91BF91AF919F918F917F916F91C2
:100E30005F914F913F912F910F900BBE0F900FBE7E
:100E40000F901F9018951F920F920FB60F921124BA
:100E50000BB60F922F933F934F935F936F937F93B4
:100E60008F939F93AF93BF93EF93FF938AE892E0A2
:100E70000E94E902FF91EF91BF91AF919F918F91F5
:100E80007F916F915F914F913F912F910F900BBE8A
:100E90000F900FBE0F901F9018951F920F920FB6D4
:100EA0000F9211240BB60F922F938F939F93EF9372
:100EB000FF93E0919A02F0919B028081E091A00261
:100EC000F091A10282FD12C090818091A3028F5FF8
:100ED0008F732091A402821751F0E091A302F0E0F9
:100EE000E657FD4F958F8093A30201C08081FF914B
:100EF000EF919F918F912F910F900BBE0F900FBE8E
:100F00000F901F901895CF93DF93EC0161E08EE274
:100F10000E94E604209711F460E004C0CF3FD105A1
:100F200031F461E08EE2DF91CF910C947104ECE03A
:100F3000F3E0E4918E2F90E0FC013197E231F1056E
:100F400008F09DC08827EC57FF4F8F4F0C94D30EAD
:100F500084B5806884BDC7BD97C084B5806284BDF8
:100F6000C8BD92C080918000806880938000D0933B
:100F70008900C093880088C080918000806280933F
:100F80008000D0938B00C0938A007EC08091800047
:100F9000886080938000D0938D00C0938C0074C0D3
:100FA0008091B00080688093B000C093B3006CC0A3
:100FB0008091B00080628093B000C093B40064C0A0
:100FC00080919000806880939000D0939900C093A6
:100FD00098005AC080919000806280939000D093D6
:100FE0009B00C0939A0050C08091900088608093CD
:100FF0009000D0939D00C0939C0046C08091A000BB
:1010000080688093A0008091A0008F7B8093A000D7
:10101000D093A900C093A80037C08091A00080623F
:101020008093A000D093AB00C093AA002DC0809104
:10103000A00088608093A000D093AD00C093AC0066
:1010400023C080912001806880932001D0932901E2
:10105000C093280119C080912001806280932001F3
:10106000D0932B01C0932A010FC08091200188608A
:1010700080932001D0932D01C0932C0105C0C0386E
:10108000D1050CF04ECF48CFDF91CF9108958091DC
:101090007B00877F80937B0086E480937C00809137
:1010A0007A00806480937A0080917A0086FDFCCF7C
:1010B000809178002091790090E0922B08958F9292
:1010C0009F92AF92BF920F931F93CF93DF93CDB7B1
:1010D000DEB7A1970FB6F894DEBF0FBECDBF19A241
:1010E000423008F44AE08E010F5D1F4F842E912C90
:1010F000A12CB12CA50194010E94B10EE62FB901DB
:10110000CA0101501109EA3014F4E05D01C0E95C44
:10111000D801EC93232B242B252B61F70115110506
:1011200071F0F80101900020E9F73197AF01401B01
:10113000510BB8018AE892E00E94740202C080E07C
:1011400090E0A1960FB6F894DEBF0FBECDBFDF9141
:10115000CF911F910F91BF90AF909F908F90089566
:1011600040914F03262F30E0240F311D21323105ED
:10117000DCF4209198032430C9F4FC0180E090E075
:10118000861758F430914F032191DC01A15DBC4FCB
:10119000A30FB11D2C930196F3CF80914F03680FDD
:1011A00060934F0380E0089581E0089582E0089500
:1011B0001092980381E0809397031092720361E08C
:1011C00084E10E94710461E085E10E947104E9EB11
:1011D000F0E080818E7F808380818D7F808388E4B2
:1011E0008093B80085E48093BC000895CF93DF938B
:1011F00091E090932E038823B9F0C091B800D0916C
:10120000BA008091BC008A7B8093BC0060E084E1DE
:101210000E94710460E085E10E9471040E94D80878
:10122000D093BA00C093B800DF91CF9108958F9208
:101230009F92AF92BF92CF92DF92EF92FF920F9365
:101240001F93CF93DF9310918902113208F0C2C02F
:10125000D0919E030E9422056B017C01C0919803EE
:10126000CC2311F180919A0390919B03A0919C0350
:10127000B0919D03892B8A2B8B2B81F30E94220531
:1012800080909A0390909B03A0909C03B0909D0344
:10129000DC01CB018C199D09AE09BF09881699069E
:1012A000AA06BB06D8F682C082E08093980381E04C
:1012B000809397038FEF809396031092950310937A
:1012C0009403A9E6B2E0E4E7F3E080E0181721F028
:1012D0009D9191938F5FFACF109273039091730356
:1012E0008D2F880F892B8093730380917203813037
:1012F00089F5109272030E9422056B017C01809196
:1013000073038093BB0080919A0390919B03A091FB
:101310009C03B0919D03892B8A2B8B2BA9F00E94F3
:10132000220500919A0310919B0320919C03309118
:101330009D03DC01CB018C199D09AE09BF0908177B
:1013400019072A073B0790F18091BC0083FDD7CF96
:1013500085EC01C085EE8093BC000E9422056B01E4
:101360007C0180919803823039F580919A039091A5
:101370009B03A0919C03B0919D03892B8A2B8B2BFF
:1013800081F30E94220500919A0310919B03209102
:101390009C0330919D03DC01CB018C199D09AE09A2
:1013A000BF09081719072A073B07D8F68091990348
:1013B0000E94F608C5E013C0809196038F3F79F034
:1013C00080919603803241F080919603803331F012
:1013D000C4E005C0C1E003C0C2E001C0C3E0109298
:1013E000680210928902109267028C2FDF91CF91D0
:1013F0001F910F91FF90EF90DF90CF90BF90AF9033
:101400009F908F9008951F93CF93DF93162FC7E27D
:10141000D3E0988121E02093670290939E0310927D
:10142000680210928902A981BA81ED91FC9111970D
:101430000190F081E02D682FCD01199589819A8165
:10144000DC01ED91FC910190F081E02D612F199567
:1014500089819A81DF91CF911F910C9417098F9206
:101460009F92AF92BF92CF92DF92EF92FF920F9333
:101470001F93CF93DF936B017C0120E030E040E8C5
:101480005FE30E94480F87FD12C020E030EC4AE580
:1014900055E4C701B6010E94A010181674F4C12CBF
:1014A00030ECD32E3AE5E32E35E4F32E06C0C12C02
:1014B000D12C20E8E22E2FE3F22E60912A037091C6
:1014C0002B0380912C0390912D030E94EE0F4B0172
:1014D0005C0120E030E040E855E4C701B6010E941D
:1014E000A5109B01AC01C501B4010E944D0F20E085
:1014F00030E040E05FE30E94DC0E20E030E040E8B6
:101500005FE30E94DB0E6B017C0120E030E040E4F1
:1015100050E40E94480F87FD11C020E030E04FE703
:1015200053E4C701B6010E94A010181664F4C12C40
:10153000D12C9FE7E92E93E4F92E05C0C12CD12CC4
:1015400080E4E82EFE2CC701B6010E94BF0FD62F03
:101550008091270391E09093670280939E031092FD
:101560006802109289028091280390912903DC017E
:10157000ED91FC910190F081E02D60E01995809152
:101580002803909129030E941709F09027030E94D5
:1015900022054B015C01C0919803CC2339F1809165
:1015A0009A0390919B03A0919C03B0919D03892B7A
:1015B0008A2B8B2B81F30E94220500919A031091B4
:1015C0009B0320919C0330919D03DC01CB01881982
:1015D0009909AA09BB09081719072A073B07D8F672
:1015E000809199030E94F608C0E08EC081E080934C
:1015F0009803809397039FEF90939603109295031F
:101600001092940380937303909173038F2D880F2E
:10161000892B8093730380917203813089F5109236
:1016200072030E9422056B017C01809173038093F9
:10163000BB0080919A0390919B03A0919C03B09171
:101640009D03892B8A2B8B2BA9F00E942205809069
:101650009A0390909B03A0909C03B0909D03DC01A3
:10166000CB018C199D09AE09BF0988169906AA06F7
:10167000BB0690F18091BC0083FDD7CF85EC01C003
:1016800085EE8093BC000E9422056B017C01809155
:101690009803813031F580919A0390919B03A0913A
:1016A0009C03B0919D03892B8A2B8B2B81F30E9485
:1016B000220580909A0390909B03A0909C03B09089
:1016C0009D03DC01CB018C199D09AE09BF09881669
:1016D0009906AA06BB06D8F6809199030E94F608DF
:1016E00013C080919503811103C08091950301C0BF
:1016F00081E0E4E7F3E0A7E4B2E0C0E0C81721F03E
:1017000091919D93CF5FFACF10924602C09345020C
:101710008091280390912903DC01ED91FC910284D2
:10172000F385E02D1995C82F682F6F76606180E0F2
:101730000E94030A6D2F8EEF0E94030A6C2F80E037
:101740000E94030A65E070E080E090E00E94470597
:101750006C2F606A80E0DF91CF911F910F91FF9015
:10176000EF90DF90CF90BF90AF909F908F900C94B0
:10177000030A85ED8093BC0080919A0390919B03AE
:10178000A0919C03B0919D030796A11DB11D23E07C
:10179000B695A795979587952A95D1F72091BC0086
:1017A00024FF1CC040919A0350919B0360919C03BD
:1017B00070919D03452B462B472B81F30097A10584
:1017C000B10541F025E32A95F1F700000197A10941
:1017D000B109E4CF809199030C94F6081092980314
:1017E00008951F920F920FB60F9211240BB60F920D
:1017F0002F933F934F935F936F937F938F939F9319
:10180000AF93BF93EF93FF938091B900887F8036A9
:1018100009F49CC068F5883209F45BC090F480310B
:1018200009F454C038F4882309F4F6C0883009F468
:101830004DC0F6C0883109F44CC0803209F45DC057
:10184000EFC0803409F468C048F4803309F455C00F
:10185000883309F0E5C080939603D8C0803509F439
:101860004FC0883509F45DC0883409F0D9C0D6C0AE
:10187000883909F4C7C0A8F4883709F467C038F478
:10188000883609F463C0803709F460C0C9C088385D
:1018900009F4B8C0803909F45FC0803809F0C0C0CD
:1018A0005BC0803B09F486C038F4803A09F466C016
:1018B000883A09F47FC0B4C0803C09F4A7C0883CD2
:1018C00009F4A4C0883B09F48AC0AAC080917303BC
:1018D00010C09091950380919403981770F5E09152
:1018E000950381E08E0F80939503F0E0EC58FC4F58
:1018F00080818093BB0085EC86C0809396038EC068
:10190000E091950381E08E0F809395038091BB0059
:10191000F0E0EC58FC4F8083909195038091940304
:101920006EC0E091950381E08E0F809395038091C6
:10193000BB00F0E0EC58FC4F80838091970381114D
:101940006DC081E08093720384EA61C083E080937C
:10195000980310927103CFCF80917103803208F009
:1019600051C0E091710381E08E0F809371038091EB
:10197000BB00F0E0EF5AFC4F8083BDCF85EC809335
:10198000BC001092980380917103803230F4E09192
:101990007103F0E0EF5AFC4F10826091710370E028
:1019A000E0914302F091440281E593E01995109291
:1019B000710336C084E08093980310925003109214
:1019C0004F03E0914102F0914202199580914F033B
:1019D000811105C081E080934F0310922F03E091A5
:1019E000500381E08E0F80935003F0E0E15DFC4FE7
:1019F00080818093BB009091500380914F03981792
:101A000008F479CF85E88093BC000AC085EC809308
:101A1000BC001092980304C0109296030E94B90B68
:101A2000FF91EF91BF91AF919F918F917F916F91B6
:101A30005F914F913F912F910F900BBE0F900FBE72
:101A40000F901F901895789484B5826084BD84B5FA
:101A5000816084BD85B5826085BD85B5816085BDA9
:101A600080916E00816080936E0010928100809161
:101A700081008260809381008091810081608093E9
:101A80008100809180008160809380008091B1000E
:101A900084608093B1008091B00081608093B00039
:101AA000809191008260809391008091910081608B
:101AB000809391008091900081608093900080914C
:101AC000A10082608093A1008091A1008160809339
:101AD000A1008091A00081608093A00080912101ED
:101AE0008260809321018091210181608093210196
:101AF0008091200181608093200180917A00846030
:101B000080937A0080917A00826080937A0080913D
:101B10007A00816080937A0080917A008068809357
:101B20007A001092C10061E088E10E94E60461E061
:101B300089E10E94E60461E08AE10E94E60461E036
:101B40008EE20E94E60460E083E10E94E60460E029
:101B500082E10E94E60460E08CE30E94E60483EEEA
:101B600093E09093090280930802809169008F7C32
:101B7000806180936900EA9A83EB93E090930B0273
:101B800080930A02809169008F738064809369005A
:101B9000EB9A10924602109245021092680210923F
:101BA00089020E94D80886EC91E0909342028093CB
:101BB000410287EC91E0909344028093430260E8F5
:101BC00080E00E94030A6AE070E080E090E00E94FA
:101BD000470560E070E08AE794E40E942F0A80E401
:101BE00098E7ADE7B1E080932A0390932B03A0938D
:101BF0002C03B0932D0360E070E088E492E40E942F
:101C00002F0A6AE070E080E090E00E944705E091D2
:101C10009A02F0919B0282E08083E0919602F0911B
:101C200097021082E0919802F09199028FEC8083E4
:101C30001092A202E0919E02F0919F0286E08083C2
:101C4000E0919C02F0919D02808180618083E0910F
:101C50009C02F0919D02808188608083E0919C02CB
:101C6000F0919D02808180688083E0919C02F091D8
:101C70009D0280818F7D80830E9447086C01990FAF
:101C8000EE08FF08F7FE0EC06DE28AE892E00E94BF
:101C90000B0366277727CB016C197D098E099F09F5
:101CA0004AE003C04AE0C701B6010E945F088CE326
:101CB00090E00E94A00464E670E080E090E00E9462
:101CC00047050E9447088E369105B4F280E090E007
:101CD0000E94A0040E947A03FDCFAFE9B3E01396FF
:101CE0001C921E92129748EE53E060E070E014964A
:101CF0004D935D936D937C93179784E192E01196D9
:101D00009C938E93EAE8F2E0138212824483558317
:101D10006683778386E292E09183808385EC90E00E
:101D20009587848784EC90E09787868780EC90E0A5
:101D3000918B808B81EC90E0938B828B82EC90E096
:101D4000958B848B86EC90E0978B868B118E128E10
:101D5000138E148EE7E2F3E080E48083B283A183E4
:101D60000895A1E21A2EAA1BBB1BFD010DC0AA1FDC
:101D7000BB1FEE1FFF1FA217B307E407F50720F0F4
:101D8000A21BB30BE40BF50B661F771F881F991F6F
:101D90001A9469F760957095809590959B01AC01B8
:101DA000BD01CF010895EE0FFF1F881F8BBF079065
:101DB000F691E02D19945058BB27AA270E94F30EE4
:101DC0000C9466100E94581038F00E945F1020F0AA
:101DD00039F49F3F19F426F40C9455100EF4E09555
:101DE000E7FB0C944F10E92F0E94771058F3BA17B5
:101DF000620773078407950720F079F4A6F50C9421
:101E000099100EF4E0950B2EBA2FA02D0B01B901FD
:101E100090010C01CA01A0011124FF27591B99F060
:101E2000593F50F4503E68F11A16F040A22F232F6C
:101E3000342F4427585FF3CF469537952795A795BC
:101E4000F0405395C9F77EF41F16BA0B620B730B63
:101E5000840BBAF09150A1F0FF0FBB1F661F771FD4
:101E6000881FC2F70EC0BA0F621F731F841F48F489
:101E7000879577956795B795F7959E3F08F0B0CF12
:101E80009395880F08F09927EE0F979587950895F9
:101E90000E942B1008F481E008950E94610F0C94B9
:101EA00066100E945F1058F00E94581040F029F40C
:101EB0005F3F29F00C944F1051110C949A100C9420
:101EC00055100E94771068F39923B1F3552391F3CD
:101ED000951B550BBB27AA2762177307840738F099
:101EE0009F5F5F4F220F331F441FAA1FA9F335D0F6
:101EF0000E2E3AF0E0E832D091505040E695001CAA
:101F0000CAF72BD0FE2F29D0660F771F881FBB1F63
:101F1000261737074807AB07B0E809F0BB0B802D41
:101F2000BF01FF2793585F4F3AF09E3F510578F06D
:101F30000C944F100C949A105F3FE4F3983ED4F346
:101F4000869577956795B795F7959F5FC9F7880F41
:101F5000911D9695879597F90895E1E0660F771F93
:101F6000881FBB1F621773078407BA0720F0621B24
:101F7000730B840BBA0BEE1F88F7E09508950E944F
:101F80007F1088F09F5798F0B92F9927B751B0F07C
:101F9000E1F0660F771F881F991F1AF0BA95C9F7ED
:101FA00014C0B13091F00E949910B1E008950C94E2
:101FB0009910672F782F8827B85F39F0B93FCCF395
:101FC000869577956795B395D9F73EF4909580956A
:101FD000709561957F4F8F4F9F4F0895E89409C08A
:101FE00097FB3EF490958095709561957F4F8F4F4C
:101FF0009F4F9923A9F0F92F96E9BB279395F69562
:10200000879577956795B795F111F8CFFAF4BB0FDF
:1020100011F460FF1BC06F5F7F4F8F4F9F4F16C043
:10202000882311F096E911C0772321F09EE8872FCD
:10203000762F05C0662371F096E8862F70E060E089
:102040002AF09A95660F771F881FDAF7880F969502
:10205000879597F90895990F0008550FAA0BE0E8A6
:10206000FEEF16161706E807F907C0F0121613065A
:10207000E407F50798F0621B730B840B950B39F49A
:102080000A2661F0232B242B252B21F408950A2600
:1020900009F4A140A6958FEF811D811D089597F940
:1020A0009F6780E870E060E008959FEF80EC0895FE
:1020B00000240A9416161706180609060895002427
:1020C0000A9412161306140605060895092E0394A1
:1020D000000C11F4882352F0BB0F40F4BF2B11F415
:1020E00060FF04C06F5F7F4F8F4F9F4F089557FD74
:1020F0009058440F551F59F05F3F71F04795880F76
:1021000097FB991F61F09F3F79F08795089512160C
:1021100013061406551FF2CF4695F1DF08C01616B8
:1021200017061806991FF1CF869571056105089469
:102130000895E894BB2766277727CB0197F9089580
:102140000E942B1008F48FEF08950E94B8100C9491
:1021500066100E94581038F00E945F1020F09523FE
:1021600011F00C944F100C94551011240C949A10EB
:102170000E94771070F3959FC1F3950F50E0551FA3
:10218000629FF001729FBB27F00DB11D639FAA27CC
:10219000F00DB11DAA1F649F6627B00DA11D661F1B
:1021A000829F2227B00DA11D621F739FB00DA11D3C
:1021B000621F839FA00D611D221F749F3327A00DF6
:1021C000611D231F849F600D211D822F762F6A2F92
:1021D00011249F5750409AF0F1F088234AF0EE0FF7
:1021E000FF1FBB1F661F771F881F91505040A9F724
:1021F0009E3F510580F00C944F100C949A105F3F55
:10220000E4F3983ED4F3869577956795B795F7955F
:10221000E7959F5FC1F7FE2B880F911D96958795D7
:1022200097F9089581E090E0F8940C941711F894D0
:02223000FFCFDE
:1022320073027302730273027302730273027302F4
:1022420000000000400413049F02C801EC01D80101
:10225200C901000000000B037402A2025803D3025A
:04226200B102C502FE
:00000001FF
