:100000000C943F010C9470010C9470010C947001DD
:100010000C9470010C9470010C9470010C9470019C
:100020000C9470010C9470010C9470010C9470018C
:100030000C9470010C9470010C9470010C9470017C
:100040000C9470010C9470010C9470010C9470016C
:100050000C9470010C9470010C9470010C94F708CE
:100060000C9470010C946B090C9441090C94700170
:100070000C9470010C9470010C9470010C9470013C
:100080000C9470010C9470010C9470010C9470012C
:100090000C9470010C9470010C9470010C94C507C1
:1000A0000C9470010C9470010C9470010C9470010C
:1000B0000C9470010C9470010C9470010C947001FC
:1000C0000C9470010C9470010C9470010C947001EC
:1000D0000C9470010C9470010C9470010C947001DC
:1000E0000C9470015A025D024C02500254029402B8
:1000F000610265026B026F02730279027D02810266
:10010000940287028B028F020C9487020C94730274
:100110000C94F1040C94FF040C94A1010C948B0238
:100120000C9494020C9450020C94A3010C944C0275
:100130000C94C7010C946F020C94FC010C94CB043A
:100140000C946B020C94DD040C9479020C948405DD
:100150000C94A2010C9454020C9437050C947D026B
:100160000C945D020C94CE040C94B3010C948102A7
:100170000C9465020C94A0040C94CF010C94A1097A
:100180000C945A020C948F020C9461020C94A401FA
:1001900000002200250028002B002E003100340032
:1001A00002010000050108010B0105050505070511
:1001B00008080808020202020A0A080804040404E3
:1001C000010101010101010103030303030303030F
:1001D000040707070C0C0C0C0C0C0C0C020202029E
:1001E00006060606060606060B0B0B0B0B0B0B0B87
:1001F0000102102020080810204010204080020139
:10020000020108040201010204081020408080401D
:10021000201008040201800402018040201008041C
:1002200002010804020101020408102040800102BA
:1002300004081020408000000A0B02090C0D0E0873
:10024000070304010000000000000000000000009F
:10025000000000000000000000000000000000009E
:10026000000012111000000000000000000000005B
:10027000000000000000000000000000A10911249F
:100280001FBECFEFD1E2DEBFCDBF00E00CBF12E05A
:10029000A0E0B2E0E6EBFAE100E00BBF02C007909D
:1002A0000D92A833B107D9F723E0A8E3B2E001C06B
:1002B0001D92AB3AB207E1F711E0CFE3D1E000E0E5
:1002C00006C021970109802FFE010E94150BCE3335
:1002D000D10780E00807A9F70E94E5090C94590DA1
:1002E0000C940000DC01ED91FC910190F081E02D77
:1002F000199440916402262F30E0240F311D2132E1
:100300003105DCF42091D1022430C9F4FC0180E0F5
:1003100090E0861758F4309164022191DC01AE5BC5
:10032000BD4FA30FB11D2C930196F3CF80916402B2
:10033000680F6093640280E0089581E0089582E090
:100340000895089508950895E0918A0280918902A0
:10035000E81730F4F0E0E557FD4F808190E0089514
:100360008FEF9FEF089590918A02809189029817EC
:1003700050F4E92FF0E0E557FD4F208130E09F5F1A
:1003800090938A0202C02FEF3FEFC9010895809138
:10039000890290E020918A02821B91090895CF92F0
:1003A000DF92EF92FF920F931F93CF93DF937C0125
:1003B000CB018A012091D702222389F0EB016B0146
:1003C000C40ED51ECC15DD0569F06991D701ED91FC
:1003D000FC910190F081E02DC7011995F3CF642FB6
:1003E0000E947901C801DF91CF911F910F91FF9079
:1003F000EF90DF90CF900895CF93DF931F92CDB70A
:10040000DEB769832091D7022223D1F02091FA022E
:10041000203240F021E030E0FC013383228380E091
:1004200090E015C08091D802E82FF0E0E752FD4F30
:10043000998190838F5F8093D8028093FA0205C0E0
:1004400061E0CE0101960E94790181E090E00F9079
:10045000DF91CF910895362F90E0FC01EA5CFD4FCB
:100460004491FC01E051FE4F2491FC01E655FE4F02
:100470009491992309F46CC0442309F455C050E0C9
:10048000FA013197E231F10508F04EC08827EE58A5
:10049000FF4F8F4F0C94150B809180008F7707C012
:1004A000809180008F7D03C080918000877F809342
:1004B00080003AC084B58F7702C084B58F7D84BD3B
:1004C00033C08091B0008F7703C08091B0008F7DE2
:1004D0008093B00029C0809190008F7707C08091F1
:1004E00090008F7D03C080919000877F8093900063
:1004F0001BC08091A0008F7707C08091A0008F7DE6
:1005000003C08091A000877F8093A0000DC08091E0
:1005100020018F7707C0809120018F7D03C08091DB
:100520002001877F80932001E92FF0E0EE0FFF1F6D
:10053000E057FE4FA591B4919FB7F894311104C0D4
:100540008C912095282302C0EC912E2B2C939FBFD9
:1005500008951092D10281E08093D0021092AB02F4
:1005600061E084E10E942B0261E085E10E942B02A0
:10057000E9EBF0E080818E7F808380818D7F8083B6
:1005800088E48093B80085E48093BC000895CF93FD
:10059000DF9391E0909341028823B9F0C091B800B5
:1005A000D091BA008091BC008A7B8093BC0060E04F
:1005B00084E10E942B0260E085E10E942B020E94F0
:1005C000A902D093BA00C093B800DF91CF910895EB
:1005D0003FB7F89480913D0290913E02A0913F0276
:1005E000B091400226B5A89B05C02F3F19F0019697
:1005F000A11DB11D3FBFBA2FA92F982F8827820FA9
:10060000911DA11DB11DBC01CD0142E0660F771FF8
:10061000881F991F4A95D1F708958F929F92AF92A4
:10062000BF92CF92DF92EF92FF920F931F93CF93DF
:10063000DF931091FA02113208F0C2C0D091F90292
:100640000E94E8026B017C01C091D102CC2311F120
:100650008091D3029091D402A091D502B091D6029C
:10066000892B8A2B8B2B81F30E94E8028090D30286
:100670009090D402A090D502B090D602DC01CB01BC
:100680008C199D09AE09BF0988169906AA06BB06F2
:10069000D8F682C082E08093D10281E08093D002BC
:1006A0008FEF8093CF021092CE021093CD02A9ED6E
:1006B000B2E0EDEAF2E080E0181721F09D9191930D
:1006C0008F5FFACF1092AC029091AC028D2F880F01
:1006D000892B8093AC028091AB02813089F5109216
:1006E000AB020E94E8026B017C018091AC02809316
:1006F000BB008091D3029091D402A091D502B09119
:10070000D602892B8A2B8B2BA9F00E94E80200913C
:10071000D3021091D4022091D5023091D602DC018F
:10072000CB018C199D09AE09BF09081719072A07C3
:100730003B0790F18091BC0083FDD7CF85EC01C0D1
:1007400085EE8093BC000E94E8026B017C018091E1
:10075000D102823039F58091D3029091D402A091D8
:10076000D502B091D602892B8A2B8B2B81F30E9464
:10077000E8020091D3021091D4022091D502309169
:10078000D602DC01CB018C199D09AE09BF090817FF
:1007900019072A073B07D8F68091D2020E94C702A8
:1007A000C5E013C08091CF028F3F79F08091CF02D6
:1007B000803241F08091CF02803331F0C4E005C037
:1007C000C1E003C0C2E001C0C3E01092D8021092A1
:1007D000FA021092D7028C2FDF91CF911F910F91C7
:1007E000FF90EF90DF90CF90BF90AF909F908F9051
:1007F00008951F93CF93DF93162FC4EAD3E0988117
:1008000021E02093D7029093F9021092D80210921F
:10081000FA02A981BA81ED91FC9111970190F081C2
:10082000E02D682FCD01199589819A81DC01ED9128
:10083000FC910190F081E02D612F199589819A81B9
:10084000DF91CF911F910C940D030F931F93CF93C2
:10085000DF938B01C4EAD3E0988121E02093D70293
:100860009093F9021092D8021092FA02A981BA81EB
:1008700024E0829FC0011124BC016A5F7F4FED918B
:10088000FC9111970190F081E02DCD01199560E068
:1008900070E089819A810E94720160E070E0898134
:1008A0009A810E947201B80189819A810E94720125
:1008B000612F70E089819A810E94720189819A81F9
:1008C000DF91CF911F910F910C940D038F929F9206
:1008D000AF92BF92CF92DF92EF92FF926B017C01B9
:1008E0000E94E8024B015C01C114D104E104F1044F
:1008F000F1F00E94E802DC01CB0188199909AA09EC
:10090000BB09883E9340A105B10570F321E0C21AEE
:10091000D108E108F10888EE880E83E0981EA11C3A
:10092000B11CC114D104E104F10419F7DDCFFF902B
:10093000EF90DF90CF90BF90AF909F908F900895F1
:10094000CF92DF92EF92FF920F931F93CF93DF939B
:100950006C017A018B01C0E0D0E0CE15DF0581F09B
:10096000D8016D918D01D601ED91FC910190F0813E
:10097000E02DC6011995892B11F02196EECF7E014D
:10098000C701DF91CF911F910F91FF90EF90DF9002
:10099000CF900895089580E090E00895FC01538D74
:1009A000448D252F30E0842F90E0821B930B541749
:1009B00010F0CF96089501970895FC01918D828DD6
:1009C000981761F0828DDF01A80FB11D5D968C91A3
:1009D000928D9F5F9F73928F90E008958FEF9FEFAE
:1009E0000895FC01918D828D981731F0828DE80F6A
:1009F000F11D858D90E008958FEF9FEF0895FC0124
:100A0000918D228D892F90E0805C9F4F821B9109F0
:100A10008F73992708958BEF92E00E94FF0421E0E5
:100A2000892B09F420E0822F0895FC01848DDF01D9
:100A3000A80FB11DA35ABF4F2C91848D90E0019651
:100A40008F739927848FA689B7892C93A089B18940
:100A50008C91837080648C93938D848D981306C0E1
:100A60000288F389E02D80818F7D80830895EF9245
:100A7000FF920F931F93CF93DF93EC0181E0888F58
:100A80009B8D8C8D981305C0E889F989808185FD3F
:100A900026C0F62E0B8D10E00F5F1F4F0F7311272E
:100AA000E02E8C8DE8120CC00FB607FCFACFE88957
:100AB000F989808185FFF5CFCE010E941505F1CF20
:100AC0008B8DFE01E80FF11DE35AFF4FF0829FB7B7
:100AD000F8940B8FEA89FB89808180620AC09FB7F6
:100AE000F894EE89FF896083E889F98980818370B1
:100AF000806480839FBF81E090E0DF91CF911F9160
:100B00000F91FF90EF900895CF93DF93EC01888DC4
:100B10008823C9F0EA89FB89808185FD05C0A88901
:100B2000B9898C9186FD0FC00FB607FCF5CF808187
:100B300085FFF2CFA889B9898C9185FFEDCFCE01D1
:100B40000E941505E7CFDF91CF91089580E090E0F6
:100B5000892B21F00E940B05811125C080E090E0D7
:100B6000892B41F080E090E0892B21F00E94000069
:100B700081111CC080E090E0892B41F080E090E082
:100B8000892B21F00E940000811113C080E090E0C9
:100B9000892BA1F080E090E0892B81F00E94000079
:100BA00081110AC008950E940000D8CF0E94000061
:100BB000E1CF0E940000EACF0C94000008958F92CC
:100BC0009F92AF92BF92CF92DF92EF92FF920F93DC
:100BD0001F93CF93DF936B017C0120E030E040E86E
:100BE0005FE30E948A0B87FD12C020E030EC4AE5EB
:100BF00055E4C701B6010E94E20C181674F4C12C2A
:100C000030ECD32E3AE5E32E35E4F32E06C0C12CAA
:100C1000D12C20E8E22E2FE3F22E6091A7037091F1
:100C2000A8038091A9039091AA030E94300C4B0164
:100C30005C0120E030E040E855E4C701B6010E94C5
:100C4000E70C9B01AC01C501B4010E948F0B20E0B1
:100C500030E040E05FE30E941E0B20E030E040E81F
:100C60005FE30E941D0B6B017C0120E030E040E45B
:100C700050E40E948A0B87FD11C020E030E04FE76E
:100C800053E4C701B6010E94E20C181664F4C12CAB
:100C9000D12C9FE7E92E93E4F92E05C0C12CD12C6D
:100CA00080E4E82EFE2CC701B6010E94010CD62F6D
:100CB0008091A40391E09093D7028093F90210925F
:100CC000D8021092FA028091A5039091A603DC014C
:100CD000ED91FC910190F081E02D60E019958091FB
:100CE000A5039091A6030E940D03F090A4030E9417
:100CF000E8024B015C01C091D102CC2339F1809113
:100D0000D3029091D402A091D502B091D602892B42
:100D10008A2B8B2B81F30E94E8020091D302109161
:100D2000D4022091D5023091D602DC01CB01881982
:100D30009909AA09BB09081719072A073B07D8F61A
:100D40008091D2020E94C702C0E08EC081E08093F1
:100D5000D1028093D0029FEF9093CF021092CE02E7
:100D60001092CD028093AC029091AC028F2D880F2F
:100D7000892B8093AC028091AB02813089F510926F
:100D8000AB020E94E8026B017C018091AC0280936F
:100D9000BB008091D3029091D402A091D502B09172
:100DA000D602892B8A2B8B2BA9F00E94E802809017
:100DB000D3029090D402A090D502B090D602DC016C
:100DC000CB018C199D09AE09BF0988169906AA06A0
:100DD000BB0690F18091BC0083FDD7CF85EC01C0AC
:100DE00085EE8093BC000E94E8026B017C0180913B
:100DF000D102813031F58091D3029091D402A0913B
:100E0000D502B091D602892B8A2B8B2B81F30E94BD
:100E1000E8028090D3029090D402A090D502B090C6
:100E2000D602DC01CB018C199D09AE09BF098816D9
:100E30009906AA06BB06D8F68091D2020E94C70284
:100E400013C08091CE02811103C08091CE0201C0F7
:100E500081E0EDEAF2E0ABE8B2E0C0E0C81721F0D3
:100E600091919D93CF5FFACF10928A02C09389022D
:100E70008091A5039091A603DC01ED91FC91028481
:100E8000F385E02D1995C82F682F6F76606180E09B
:100E90000E94F9036D2F8EEF0E94F9036C2F80E002
:100EA0000E94F90365E070E080E090E00E94660433
:100EB0006C2F606A80E0DF91CF911F910F91FF90BE
:100EC000EF90DF90CF90BF90AF909F908F900C9459
:100ED000F903CF93DF93009779F0FC010190002094
:100EE000E9F73197AF01481B590BBC018BEF92E03A
:100EF0000E94A004EC0102C0C0E0D0E042E050E05B
:100F000064E272E08BEF92E00E94A0048C0F9D1FC0
:100F1000DF91CF91089585ED8093BC008091D3023D
:100F20009091D402A091D502B091D6020796A11D4E
:100F3000B11D23E0B695A795979587952A95D1F78A
:100F40002091BC0024FF1CC04091D3025091D402D8
:100F50006091D5027091D602452B462B472B81F329
:100F60000097A105B10541F025E32A95F1F70000AE
:100F70000197A109B109E4CF8091D2020C94C70274
:100F80001092D10208950E94540D1F920F920FB635
:100F90000F9211240BB60F922F933F934F935F93B1
:100FA0006F937F938F939F93AF93BF93EF93FF9331
:100FB0008091B900887F803609F49CC068F588323A
:100FC00009F45BC090F4803109F454C038F48823EC
:100FD00009F4F6C0883009F44DC0F6C0883109F430
:100FE0004CC0803209F45DC0EFC0803409F468C0A1
:100FF00048F4803309F455C0883309F0E5C0809384
:10100000CF02D8C0803509F44FC0883509F45DC0DF
:10101000883409F0D9C0D6C0883909F4C7C0A8F40B
:10102000883709F467C038F4883609F463C080371C
:1010300009F460C0C9C0883809F4B8C0803909F41F
:101040005FC0803809F0C0C05BC0803B09F486C037
:1010500038F4803A09F466C0883A09F47FC0B4C015
:10106000803C09F4A7C0883C09F4A4C0883B09F47B
:101070008AC0AAC08091AC0210C09091CE0280912B
:10108000CD02981770F5E091CE0281E08E0F80932B
:10109000CE02F0E0E355FD4F80818093BB0085ECEC
:1010A00086C08093CF028EC0E091CE0281E08E0F89
:1010B0008093CE028091BB00F0E0E355FD4F80832A
:1010C0009091CE028091CD026EC0E091CE0281E07F
:1010D0008E0F8093CE028091BB00F0E0E355FD4F70
:1010E00080838091D00281116DC081E08093AB023A
:1010F00084EA61C083E08093D10210928802CFCF4E
:1011000080918802803208F051C0E091880281E02D
:101110008E0F809388028091BB00F0E0E859FD4F6C
:101120008083BDCF85EC8093BC001092D10280916A
:101130008802803230F4E0918802F0E0E859FD4FF7
:1011400010826091880270E0E0916602F09167027F
:1011500088E692E019951092880236C084E0809368
:10116000D1021092650210926402E0916202F09145
:101170006302199580916402811105C081E080931A
:10118000640210924202E091650281E08E0F80932A
:101190006502F0E0EE5BFD4F80818093BB00909193
:1011A000650280916402981708F479CF85E88093EE
:1011B000BC000AC085EC8093BC001092D10204C030
:1011C0001092CF020E948B07FF91EF91BF91AF91D8
:1011D0009F918F917F916F915F914F913F912F914F
:1011E0000F900BBE0F900FBE0F901F9018951F927F
:1011F0000F920FB60F9211242F933F938F939F93CB
:10120000AF93BF938091390290913A02A0913B0233
:10121000B0913C023091380223E0230F2D3720F4A7
:101220000196A11DB11D05C026E8230F0296A11D40
:10123000B11D209338028093390290933A02A09313
:101240003B02B0933C0280913D0290913E02A091FE
:101250003F02B09140020196A11DB11D80933D0255
:1012600090933E02A0933F02B0934002BF91AF9192
:101270009F918F913F912F910F900FBE0F901F90D4
:1012800018951F920F920FB60F9211240BB60F9262
:101290002F933F934F935F936F937F938F939F937E
:1012A000AF93BF93EF93FF938BEF92E00E941505EE
:1012B000FF91EF91BF91AF919F918F917F916F912E
:1012C0005F914F913F912F910F900BBE0F900FBEEA
:1012D0000F901F9018951F920F920FB60F92112426
:1012E0000BB60F922F938F939F93EF93FF93E09101
:1012F0000B03F0910C038081E0911103F091120334
:1013000082FD12C09081809114038F5F8F732091B2
:101310001503821751F0E0911403F0E0E550FD4F02
:10132000958F8093140301C08081FF91EF919F916D
:101330008F912F910F900BBE0F900FBE0F901F90AB
:101340001895A8E9B3E013961C921E92129748EEE6
:1013500053E060E070E014964D935D936D937C9341
:10136000179784E092E011969C938E93EBEFF2E056
:1013700013821282448355836683778386E192E0E9
:101380009183808385EC90E09587848784EC90E05E
:101390009787868780EC90E0918B808B81EC90E042
:1013A000938B828B82EC90E0958B848B86EC90E023
:1013B000978B868B118E128E138E148EE4EAF3E0D7
:1013C00080E48083B283A1830895789484B5826099
:1013D00084BD84B5816084BD85B5826085BD85B5D9
:1013E000816085BD80916E00816080936E00109257
:1013F00081008091810082608093810080918100D2
:101400008160809381008091800081608093800062
:101410008091B10084608093B1008091B0008160C0
:101420008093B000809191008260809391008091C0
:101430009100816080939100809190008160809301
:1014400090008091A10082608093A1008091A10012
:1014500081608093A1008091A00081608093A000B2
:10146000809121018260809321018091210181601E
:1014700080932101809120018160809320018091DF
:101480007A00846080937A0080917A0082608093F1
:101490007A0080917A00816080937A0080917A004E
:1014A000806880937A001092C10010928A02109294
:1014B00089021092D8021092FA020E94A90281EACF
:1014C00091E0909363028093620282EA91E09093AC
:1014D00067028093660260E880E00E94F9036AE098
:1014E00070E080E090E00E94660460E070E08AE7CF
:1014F00094E40E94DF0580E498E7ADE7B1E08093D3
:10150000A7039093A803A093A903B093AA0360E054
:1015100070E088E492E40E94DF056AE070E080E019
:1015200090E00E946604E0910B03F0910C0382E0CE
:101530008083E0910703F09108031082E091090392
:10154000F0910A038FEC808310921303E0910F0354
:10155000F091100386E08083E0910D03F0910E037B
:10156000808180618083E0910D03F0910E03808182
:1015700088608083E0910D03F0910E038081806884
:101580008083E0910D03F0910E0380818F7D808335
:1015900087E292E00E94690762E672E080E00E94C2
:1015A000250467E672E081E00E9425046AE872E0A3
:1015B00082E00E94250468E572E083E00E94250431
:1015C0006CE672E084E00E9425046AE872E085E03F
:1015D0000E9425046CE672E086E00E94250468E51E
:1015E00072E087E00E94250466E772E088E00E94CE
:1015F00025046AE872E089E00E94250468E572E04B
:101600008AE00E94250468EC70E08BE00E942504CB
:1016100064E670E080E090E00E94660482E392E07D
:101620000E9469070E94A605B3CFEE0FFF1F881F17
:101630008BBF0790F691E02D19945058BB27AA272D
:101640000E94350B0C94A80C0E949A0C38F00E9452
:10165000A10C20F039F49F3F19F426F40C94970C58
:101660000EF4E095E7FB0C94910CE92F0E94B90C65
:1016700058F3BA17620773078407950720F079F4C7
:10168000A6F50C94DB0C0EF4E0950B2EBA2FA02DD2
:101690000B01B90190010C01CA01A0011124FF271F
:1016A000591B99F0593F50F4503E68F11A16F0401A
:1016B000A22F232F342F4427585FF3CF4695379519
:1016C0002795A795F0405395C9F77EF41F16BA0BDE
:1016D000620B730B840BBAF09150A1F0FF0FBB1F8C
:1016E000661F771F881FC2F70EC0BA0F621F731FD5
:1016F000841F48F4879577956795B795F7959E3F32
:1017000008F0B0CF9395880F08F09927EE0F9795C2
:10171000879508950E946D0C08F481E008950E9459
:10172000A30B0C94A80C0E94A10C58F00E949A0CD8
:1017300040F029F45F3F29F00C94910C51110C9466
:10174000DC0C0C94970C0E94B90C68F39923B1F34C
:10175000552391F3951B550BBB27AA2762177307D7
:10176000840738F09F5F5F4F220F331F441FAA1F6B
:10177000A9F335D00E2E3AF0E0E832D09150504027
:10178000E695001CCAF72BD0FE2F29D0660F771FD5
:10179000881FBB1F261737074807AB07B0E809F0BB
:1017A000BB0B802DBF01FF2793585F4F3AF09E3F40
:1017B000510578F00C94910C0C94DC0C5F3FE4F331
:1017C000983ED4F3869577956795B795F7959F5F83
:1017D000C9F7880F911D9695879597F90895E1E0CF
:1017E000660F771F881FBB1F621773078407BA072E
:1017F00020F0621B730B840BBA0BEE1F88F7E09589
:1018000008950E94C10C88F09F5798F0B92F99272E
:10181000B751B0F0E1F0660F771F881F991F1AF0DB
:10182000BA95C9F714C0B13091F00E94DB0CB1E059
:1018300008950C94DB0C672F782F8827B85F39F058
:10184000B93FCCF3869577956795B395D9F73EF474
:1018500090958095709561957F4F8F4F9F4F08951C
:10186000E89409C097FB3EF490958095709561953A
:101870007F4F8F4F9F4F9923A9F0F92F96E9BB27F0
:101880009395F695879577956795B795F111F8CF6C
:10189000FAF4BB0F11F460FF1BC06F5F7F4F8F4FD7
:1018A0009F4F16C0882311F096E911C0772321F0CD
:1018B0009EE8872F762F05C0662371F096E8862F65
:1018C00070E060E02AF09A95660F771F881FDAF7BC
:1018D000880F9695879597F90895990F0008550FE9
:1018E000AA0BE0E8FEEF16161706E807F907C0F0A6
:1018F00012161306E407F50798F0621B730B840BAE
:10190000950B39F40A2661F0232B242B252B21F487
:1019100008950A2609F4A140A6958FEF811D811D27
:10192000089597F99F6780E870E060E008959FEF61
:1019300080EC089500240A94161617061806090666
:10194000089500240A941216130614060506089535
:10195000092E0394000C11F4882352F0BB0F40F4BD
:10196000BF2B11F460FF04C06F5F7F4F8F4F9F4FFD
:10197000089557FD9058440F551F59F05F3F71F07F
:101980004795880F97FB991F61F09F3F79F08795E6
:101990000895121613061406551FF2CF4695F1DF6F
:1019A00008C0161617061806991FF1CF86957105FF
:1019B000610508940895E894BB2766277727CB0133
:1019C00097F908950E946D0C08F48FEF08950E9416
:1019D000FA0C0C94A80C0E949A0C38F00E94A10CEE
:1019E00020F0952311F00C94910C0C94970C112479
:1019F0000C94DC0C0E94B90C70F3959FC1F3950F09
:101A000050E0551F629FF001729FBB27F00DB11D82
:101A1000639FAA27F00DB11DAA1F649F6627B00D12
:101A2000A11D661F829F2227B00DA11D621F739FFB
:101A3000B00DA11D621F839FA00D611D221F749F09
:101A40003327A00D611D231F849F600D211D822F50
:101A5000762F6A2F11249F5750409AF0F1F0882377
:101A60004AF0EE0FFF1FBB1F661F771F881F9150A4
:101A70005040A9F79E3F510580F00C94910C0C94B6
:101A8000DC0C5F3FE4F3983ED4F386957795679539
:101A9000B795F795E7959F5FC1F7FE2B880F911DCE
:101AA0009695879597F9089581E090E0F8940C94C5
:061AB000590DF894FFCF70
:101AB60000000000FC01CF01CB04A301C701B30164
:101AC600A401000000003705A004CE048405FF042D
:101AD600DD04F1040D0A0074657374207365727673
:081AE6006F0072656164790074
:00000001FF
