:100000000C943F010C9470010C9470010C947001DD
:100010000C9470010C9470010C9470010C9470019C
:100020000C9470010C9470010C9470010C9470018C
:100030000C9470010C9470010C9470010C9470017C
:100040000C9470010C9470010C9470010C9470016C
:100050000C9470010C9470010C9470010C94DC08E9
:100060000C9470010C9450090C9426090C947001A6
:100070000C9470010C9470010C9470010C9470013C
:100080000C9470010C9470010C9470010C9470012C
:100090000C9470010C9470010C9470010C94AA07DC
:1000A0000C9470010C9470010C9470010C9470010C
:1000B0000C9470010C9470010C9470010C947001FC
:1000C0000C9470010C9470010C9470010C947001EC
:1000D0000C9470010C9470010C9470010C947001DC
:1000E0000C947001A801AB019A019E01A201E201EA
:1000F000AF01B301B901BD01C101C701CB01CF01FE
:10010000E201D501D901DD010C9461020C94C10119
:100110000C94C3040C9486090C945F020C949A010D
:100120000C94C7010C945E020C9479050C94C004E5
:100130000C94CB010C94BD010C94CF010C94B9012B
:100140000C94AF010C94AB010C9495040C94E60450
:100150000C948C020C94B3010C94A2010C946002D8
:100160000C94B9020C94F4040C94D2040C94840200
:100170000C94D5010C949E010C94E2010C942C0576
:100180000C94DD010C94D9010C9470020C94A8011C
:1001900000002200250028002B002E003100340032
:1001A00002010000050108010B0105050505070511
:1001B00008080808020202020A0A080804040404E3
:1001C000010101010101010103030303030303030F
:1001D000040707070C0C0C0C0C0C0C0C020202029E
:1001E00006060606060606060B0B0B0B0B0B0B0B87
:1001F0000102102020080810204010204080020139
:10020000020108040201010204081020408080401D
:10021000201008040201800402018040201008041C
:1002200002010804020101020408102040800102BA
:1002300004081020408000000A0B02090C0D0E0873
:10024000070304010000000000000000000000009F
:10025000000000000000000000000000000000009E
:10026000000012111000000000000000000000005B
:1002700000000000000000000000000086091124BA
:100280001FBECFEFD1E2DEBFCDBF00E00CBF12E05A
:10029000A0E0B2E0E2E5FAE100E00BBF02C00790A7
:1002A0000D92AE33B107D9F723E0AEE3B2E001C05F
:1002B0001D92A13BB207E1F711E0CFE3D1E000E0EE
:1002C00006C021970109802FFE010E94E30ACE3368
:1002D000D10780E00807A9F70E94CA090C94270DEE
:1002E0000C940000DC01ED91FC910190F081E02D77
:1002F0001994362F90E0FC01EA5CFD4F4491FC011B
:10030000E051FE4F2491FC01E655FE4F9491992354
:1003100009F46CC0442309F455C050E0FA01319748
:10032000E231F10508F04EC08827EE58FF4F8F4F9D
:100330000C94E30A809180008F7707C08091800041
:100340008F7D03C080918000877F809380003AC0BA
:1003500084B58F7702C084B58F7D84BD33C0809112
:10036000B0008F7703C08091B0008F7D8093B00084
:1003700029C0809190008F7707C0809190008F7D79
:1003800003C080919000877F809390001BC0809174
:10039000A0008F7707C08091A0008F7D03C080915F
:1003A000A000877F8093A0000DC0809120018F77EF
:1003B00007C0809120018F7D03C080912001877F3D
:1003C00080932001E92FF0E0EE0FFF1FE057FE4F72
:1003D000A591B4919FB7F894311104C08C912095E8
:1003E000282302C0EC912E2B2C939FBF089540919F
:1003F0006A02262F30E0240F311D21323105DCF452
:100400002091D7022430C9F4FC0180E090E08617E7
:1004100058F430916A022191DC01A85BBD4FA30F13
:10042000B11D2C930196F3CF80916A02680F6093FF
:100430006A0280E0089581E0089582E008951092B4
:10044000D70281E08093D6021092B10261E084E18C
:100450000E94790161E085E10E947901E9EBF0E019
:1004600080818E7F808380818D7F808388E48093EC
:10047000B80085E48093BC000895CF93DF9391E0AA
:10048000909347028823B9F0C091B800D091BA0088
:100490008091BC008A7B8093BC0060E084E10E9474
:1004A000790160E085E10E9479010E941F02D093EA
:1004B000BA00C093B800DF91CF91089508950895D0
:1004C0000895E091900280918F02E81730F4F0E0F7
:1004D000EF56FD4F808190E008958FEF9FEF0895D4
:1004E0009091900280918F02981750F4E92FF0E0DC
:1004F000EF56FD4F208130E09F5F9093900202C045
:100500002FEF3FEFC901089580918F0290E0209175
:100510009002821B91090895CF92DF92EF92FF9291
:100520000F931F93CF93DF937C01CB018A0120911E
:10053000DD02222389F0EB016B01C40ED51ECC1520
:10054000DD0569F06991D701ED91FC910190F08191
:10055000E02DC7011995F3CF642F0E94F701C80160
:10056000DF91CF911F910F91FF90EF90DF90CF908F
:100570000895CF93DF931F92CDB7DEB769832091A3
:10058000DD022223D1F020910003203240F021E04F
:1005900030E0FC013383228380E090E015C080913D
:1005A000DE02E82FF0E0E152FD4F998190838F5FEA
:1005B0008093DE028093000305C061E0CE010196C6
:1005C0000E94F70181E090E00F90DF91CF910895B4
:1005D0003FB7F8948091430290914402A091450264
:1005E000B091460226B5A89B05C02F3F19F0019691
:1005F000A11DB11D3FBFBA2FA92F982F8827820FA9
:10060000911DA11DB11DBC01CD0142E0660F771FF8
:10061000881F991F4A95D1F708958F929F92AF92A4
:10062000BF92CF92DF92EF92FF920F931F93CF93DF
:10063000DF9310910003113208F0C2C0D091FF0285
:100640000E94E8026B017C01C091D702CC2311F11A
:100650008091D9029091DA02A091DB02B091DC0284
:10066000892B8A2B8B2B81F30E94E8028090D90280
:100670009090DA02A090DB02B090DC02DC01CB01AA
:100680008C199D09AE09BF0988169906AA06BB06F2
:10069000D8F682C082E08093D70281E08093D602B0
:1006A0008FEF8093D5021092D4021093D302AFED56
:1006B000B2E0E3EBF2E080E0181721F09D91919316
:1006C0008F5FFACF1092B2029091B2028D2F880FF5
:1006D000892B8093B2028091B102813089F510920A
:1006E000B1020E94E8026B017C018091B20280930A
:1006F000BB008091D9029091DA02A091DB02B09107
:10070000DC02892B8A2B8B2BA9F00E94E802009136
:10071000D9021091DA022091DB023091DC02DC0177
:10072000CB018C199D09AE09BF09081719072A07C3
:100730003B0790F18091BC0083FDD7CF85EC01C0D1
:1007400085EE8093BC000E94E8026B017C018091E1
:10075000D702823039F58091D9029091DA02A091C6
:10076000DB02B091DC02892B8A2B8B2B81F30E9458
:10077000E8020091D9021091DA022091DB02309157
:10078000DC02DC01CB018C199D09AE09BF090817F9
:1007900019072A073B07D8F68091D8020E943D022C
:1007A000C5E013C08091D5028F3F79F08091D502CA
:1007B000803241F08091D502803331F0C4E005C031
:1007C000C1E003C0C2E001C0C3E01092DE0210929B
:1007D00000031092DD028C2FDF91CF911F910F91BA
:1007E000FF90EF90DF90CF90BF90AF909F908F9051
:1007F00008951F93CF93DF93162FCAEAD3E0988111
:1008000021E02093DD029093FF021092DE0210920D
:100810000003A981BA81ED91FC9111970190F081BB
:10082000E02D682FCD01199589819A81DC01ED9128
:10083000FC910190F081E02D612F199589819A81B9
:10084000DF91CF911F910C940D03CF93DF93CAEAF0
:10085000D3E0888191E09093DD028093FF021092B3
:10086000DE021092000389819A81DC01ED91FC91F6
:100870000190F081E02D6EE0199560E070E08981D3
:100880009A810E94720160E070E089819A810E94E1
:1008900072016CE271E089819A810E94720161E0CB
:1008A00070E089819A810E94720189819A81DF9129
:1008B000CF910C940D038F929F92AF92BF92CF92E3
:1008C000DF92EF92FF926B017C010E94E8024B01E4
:1008D0005C01C114D104E104F104F1F00E94E802CA
:1008E000DC01CB0188199909AA09BB09883E93400C
:1008F000A105B10570F321E0C21AD108E108F108A1
:1009000088EE880E83E0981EA11CB11CC114D1048E
:10091000E104F10419F7DDCFFF90EF90DF90CF9065
:10092000BF90AF909F908F900895CF92DF92EF92FB
:10093000FF920F931F93CF93DF936C017A018B018A
:10094000C0E0D0E0CE15DF0581F0D8016D918D01BA
:10095000D601ED91FC910190F081E02DC601199531
:10096000892B11F02196EECF7E01C701DF91CF9147
:100970001F910F91FF90EF90DF90CF900895089511
:1009800080E090E00895FC01538D448D252F30E0E8
:10099000842F90E0821B930B541710F0CF9608958C
:1009A00001970895FC01918D828D981761F0828DD9
:1009B000DF01A80FB11D5D968C91928D9F5F9F7393
:1009C000928F90E008958FEF9FEF0895FC01918D35
:1009D000828D981731F0828DE80FF11D858D90E0A2
:1009E00008958FEF9FEF0895FC01918D228D892F3F
:1009F00090E0805C9F4F821B91098F739927089527
:100A000081E093E00E94F40421E0892B09F420E0C6
:100A1000822F0895FC01848DDF01A80FB11DA35A18
:100A2000BF4F2C91848D90E001968F739927848F0E
:100A3000A689B7892C93A089B1898C918370806431
:100A40008C93938D848D981306C00288F389E02DD2
:100A500080818F7D80830895EF92FF920F931F9383
:100A6000CF93DF93EC0181E0888F9B8D8C8D981361
:100A700005C0E889F989808185FD26C0F62E0B8D99
:100A800010E00F5F1F4F0F731127E02E8C8DE812BF
:100A90000CC00FB607FCFACFE889F989808185FF81
:100AA000F5CFCE010E940A05F1CF8B8DFE01E80F34
:100AB000F11DE35AFF4FF0829FB7F8940B8FEA893C
:100AC000FB89808180620AC09FB7F894EE89FF8914
:100AD0006083E889F98980818370806480839FBF07
:100AE00081E090E0DF91CF911F910F91FF90EF9007
:100AF0000895CF93DF93EC01888D8823C9F0EA89AC
:100B0000FB89808185FD05C0A889B9898C9186FD06
:100B10000FC00FB607FCF5CF808185FFF2CFA88903
:100B2000B9898C9185FFEDCFCE010E940A05E7CFF0
:100B3000DF91CF91089580E090E0892B21F00E9411
:100B40000005811125C080E090E0892B41F080E014
:100B500090E0892B21F00E94000081111CC080E0F0
:100B600090E0892B41F080E090E0892B21F00E94F9
:100B70000000811113C080E090E0892BA1F080E09B
:100B800090E0892B81F00E94000081110AC0089535
:100B90000E940000D8CF0E940000E1CF0E94000018
:100BA000EACF0C94000008958F929F92AF92BF926B
:100BB000CF92DF92EF92FF920F931F93CF93DF9329
:100BC0006B017C0120E030E040E85FE30E94580BBD
:100BD00087FD12C020E030EC4AE555E4C701B601BC
:100BE0000E94B00C181674F4C12C30ECD32E3AE5E8
:100BF000E32E35E4F32E06C0C12CD12C20E8E22EE2
:100C00002FE3F22E6091AD037091AE038091AF039C
:100C10009091B0030E94FE0B4B015C0120E030E09C
:100C200040E855E4C701B6010E94B50C9B01AC0138
:100C3000C501B4010E945D0B20E030E040E05FE3BD
:100C40000E94EC0A20E030E040E85FE30E94EB0AFB
:100C50006B017C0120E030E040E450E40E94580B3E
:100C600087FD11C020E030E04FE753E4C701B60133
:100C70000E94B00C181664F4C12CD12C9FE7E92E09
:100C800093E4F92E05C0C12CD12C80E4E82EFE2C73
:100C9000C701B6010E94CF0BD62F8091AA0391E025
:100CA0009093DD028093FF021092DE021092000307
:100CB0008091AB039091AC03DC01ED91FC9101902C
:100CC000F081E02D60E019958091AB039091AC0329
:100CD0000E940D03F090AA030E94E8024B015C0100
:100CE000C091D702CC2339F18091D9029091DA02D8
:100CF000A091DB02B091DC02892B8A2B8B2B81F334
:100D00000E94E8020091D9021091DA022091DB02E0
:100D10003091DC02DC01CB0188199909AA09BB09D1
:100D2000081719072A073B07D8F68091D8020E94B6
:100D30003D02C0E08EC081E08093D7028093D6024E
:100D40009FEF9093D5021092D4021092D302809319
:100D5000B2029091B2028F2D880F892B8093B2023C
:100D60008091B102813089F51092B1020E94E802AF
:100D70006B017C018091B2028093BB008091D9020B
:100D80009091DA02A091DB02B091DC02892B8A2BD0
:100D90008B2BA9F00E94E8028090D9029090DA0291
:100DA000A090DB02B090DC02DC01CB018C199D0924
:100DB000AE09BF0988169906AA06BB0690F1809174
:100DC000BC0083FDD7CF85EC01C085EE8093BC00CD
:100DD0000E94E8026B017C018091D702813031F5DD
:100DE0008091D9029091DA02A091DB02B091DC02ED
:100DF000892B8A2B8B2B81F30E94E8028090D902E9
:100E00009090DA02A090DB02B090DC02DC01CB0112
:100E10008C199D09AE09BF0988169906AA06BB065A
:100E2000D8F68091D8020E943D0213C08091D4026E
:100E3000811103C08091D40201C081E0E3EBF2E0B4
:100E4000A1E9B2E0C0E0C81721F091919D93CF5F76
:100E5000FACF10929002C0938F028091AB039091D1
:100E6000AC03DC01ED91FC910284F385E02D199532
:100E7000C82F682F6F76606180E00E94F9036D2FA4
:100E80008EEF0E94F9036C2F80E00E94F90365E069
:100E900070E080E090E00E945B046C2F606A80E06C
:100EA000DF91CF911F910F91FF90EF90DF90CF9046
:100EB000BF90AF909F908F900C94F903009769F0CA
:100EC000FC0101900020E9F73197AF01481B590B55
:100ED000BC0181E093E00C94950480E090E00895DB
:100EE00085ED8093BC008091D9029091DA02A091A7
:100EF000DB02B091DC020796A11DB11D23E0B6957F
:100F0000A795979587952A95D1F72091BC0024FF46
:100F10001CC04091D9025091DA026091DB027091BD
:100F2000DC02452B462B472B81F30097A105B10529
:100F300041F025E32A95F1F700000197A109B109D5
:100F4000E4CF8091D8020C943D021092D70208950C
:100F50000E94220D1F920F920FB60F9211240BB612
:100F60000F922F933F934F935F936F937F938F9342
:100F70009F93AF93BF93EF93FF938091B900887FC6
:100F8000803609F49CC068F5883209F45BC090F49F
:100F9000803109F454C038F4882309F4F6C088304D
:100FA00009F44DC0F6C0883109F44CC0803209F410
:100FB0005DC0EFC0803409F468C048F4803309F4A0
:100FC00055C0883309F0E5C08093D502D8C080357C
:100FD00009F44FC0883509F45DC0883409F0D9C0E0
:100FE000D6C0883909F4C7C0A8F4883709F467C0A7
:100FF00038F4883609F463C0803709F460C0C9C08A
:10100000883809F4B8C0803909F45FC0803809F025
:10101000C0C05BC0803B09F486C038F4803A09F454
:1010200066C0883A09F47FC0B4C0803C09F4A7C008
:10103000883C09F4A4C0883B09F48AC0AAC0809106
:10104000B20210C09091D4028091D302981770F52B
:10105000E091D40281E08E0F8093D402F0E0ED5451
:10106000FD4F80818093BB0085EC86C08093D502C4
:101070008EC0E091D40281E08E0F8093D4028091E3
:10108000BB00F0E0ED54FD4F80839091D40280913D
:10109000D3026EC0E091D40281E08E0F8093D4021F
:1010A0008091BB00F0E0ED54FD4F80838091D6022B
:1010B00081116DC081E08093B10284EA61C083E058
:1010C0008093D70210928E02CFCF80918E02803211
:1010D00008F051C0E0918E0281E08E0F80938E0265
:1010E0008091BB00F0E0E259FD4F8083BDCF85ECDD
:1010F0008093BC001092D70280918E02803230F42F
:10110000E0918E02F0E0E259FD4F108260918E0274
:1011100070E0E0916C02F0916D028EE692E019951C
:1011200010928E0236C084E08093D70210926B0238
:1011300010926A02E0916802F0916902199580911B
:101140006A02811105C081E080936A021092480210
:10115000E0916B0281E08E0F80936B02F0E0E85B20
:10116000FD4F80818093BB0090916B0280916A0259
:10117000981708F479CF85E88093BC000AC085EC05
:101180008093BC001092D70204C01092D5020E9436
:101190007007FF91EF91BF91AF919F918F917F91D8
:1011A0006F915F914F913F912F910F900BBE0F90D8
:1011B0000FBE0F901F9018951F920F920FB60F92AF
:1011C00011242F933F938F939F93AF93BF9380915D
:1011D0003F0290914002A0914102B09142023091B1
:1011E0003E0223E0230F2D3720F40196A11DB11DEF
:1011F00005C026E8230F0296A11DB11D20933E02D3
:1012000080933F0290934002A0934102B093420228
:101210008091430290914402A0914502B091460210
:101220000196A11DB11D8093430290934402A093A7
:101230004502B0934602BF91AF919F918F913F912C
:101240002F910F900FBE0F901F9018951F920F9225
:101250000FB60F9211240BB60F922F933F934F931B
:101260005F936F937F938F939F93AF93BF93EF930E
:10127000FF9381E093E00E940A05FF91EF91BF91F7
:10128000AF919F918F917F916F915F914F913F911E
:101290002F910F900BBE0F900FBE0F901F901895BF
:1012A0001F920F920FB60F9211240BB60F922F932D
:1012B0008F939F93EF93FF93E0911103F0911203AB
:1012C0008081E0911703F091180382FD12C0908194
:1012D00080911A038F5F8F7320911B03821751F047
:1012E000E0911A03F0E0EF5FFC4F958F80931A03B3
:1012F00001C08081FF91EF919F918F912F910F906D
:101300000BBE0F900FBE0F901F901895AEE9B3E083
:1013100013961C921E92129748EE53E060E070E024
:1013200014964D935D936D937C93179784E092E0B0
:1013300011969C938E93E1E0F3E013821282448332
:1013400055836683778386E192E09183808385EC81
:1013500090E09587848784EC90E09787868780EC7F
:1013600090E0918B808B81EC90E0938B828B82EC70
:1013700090E0958B848B86EC90E0978B868B118E1A
:10138000128E138E148EEAEAF3E080E48083B28337
:10139000A1830895CF93DF93CDB7DEB7A1970FB6A2
:1013A000F894DEBF0FBECDBF789484B5826084BD53
:1013B00084B5816084BD85B5826085BD85B5816059
:1013C00085BD80916E00816080936E0010928100D7
:1013D0008091810082608093810080918100816092
:1013E0008093810080918000816080938000809153
:1013F000B10084608093B1008091B00081608093DF
:10140000B000809191008260809391008091910062
:101410008160809391008091900081608093900022
:101420008091A10082608093A1008091A1008160E1
:101430008093A1008091A00081608093A0008091A2
:10144000210182608093210180912101816080933C
:1014500021018091200181608093200180917A0098
:10146000846080937A0080917A00826080937A0011
:1014700080917A00816080937A0080917A00806800
:1014800080937A001092C100E0911103F091120351
:1014900082E08083E0910D03F0910E031082E091D1
:1014A0000F03F09110038FEC808310921903E091E9
:1014B0001503F091160386E08083E0911303F09109
:1014C0001403808180618083E0911303F091140301
:1014D000808188608083E0911303F0911403808100
:1014E00080688083E0911303F091140380818F7DE5
:1014F000808384E292E00E945E078AE392E00E9489
:101500005E071092900210928F021092DE021092EB
:1015100000030E941F028EE592E09093690280937F
:1015200068028FE592E090936D0280936C0260E810
:1015300080E00E94F9036AE070E080E090E00E94A1
:101540005B0460E070E08AE794E40E94D40580ECDC
:101550009CEFABE9B1E08093AD039093AE03A09311
:10156000AF03B093B00360E070E088E492E40E94BF
:10157000D4056AE070E080E090E00E945B0412E332
:1015800019A218A3CE0180960E945E078AE392E01A
:101590000E945E070E94250464EF71E080E090E005
:1015A0000E945B040E94250464EF71E080E090E0FB
:1015B0000E945B0464EF71E080E090E00E945B04B5
:1015C0000E949B05DDCFEE0FFF1F881F8BBF07908A
:1015D000F691E02D19945058BB27AA270E94030BBF
:1015E0000C94760C0E94680C38F00E946F0C20F06E
:1015F00039F49F3F19F426F40C94650C0EF4E09531
:10160000E7FB0C945F0CE92F0E94870C58F3BA1784
:10161000620773078407950720F079F4A6F50C9408
:10162000A90C0EF4E0950B2EBA2FA02D0B01B901D9
:1016300090010C01CA01A0011124FF27591B99F048
:10164000593F50F4503E68F11A16F040A22F232F54
:10165000342F4427585FF3CF469537952795A795A4
:10166000F0405395C9F77EF41F16BA0B620B730B4B
:10167000840BBAF09150A1F0FF0FBB1F661F771FBC
:10168000881FC2F70EC0BA0F621F731F841F48F471
:10169000879577956795B795F7959E3F08F0B0CFFA
:1016A0009395880F08F09927EE0F979587950895E1
:1016B0000E943B0C08F481E008950E94710B0C9489
:1016C000760C0E946F0C58F00E94680C40F029F4D0
:1016D0005F3F29F00C945F0C51110C94AA0C0C94F0
:1016E000650C0E94870C68F39923B1F3552391F39D
:1016F000951B550BBB27AA2762177307840738F081
:101700009F5F5F4F220F331F441FAA1FA9F335D0DD
:101710000E2E3AF0E0E832D091505040E695001C91
:10172000CAF72BD0FE2F29D0660F771F881FBB1F4B
:10173000261737074807AB07B0E809F0BB0B802D29
:10174000BF01FF2793585F4F3AF09E3F510578F055
:101750000C945F0C0C94AA0C5F3FE4F3983ED4F316
:10176000869577956795B795F7959F5FC9F7880F29
:10177000911D9695879597F90895E1E0660F771F7B
:10178000881FBB1F621773078407BA0720F0621B0C
:10179000730B840BBA0BEE1F88F7E09508950E9437
:1017A0008F0C88F09F5798F0B92F9927B751B0F058
:1017B000E1F0660F771F881F991F1AF0BA95C9F7D5
:1017C00014C0B13091F00E94A90CB1E008950C94BE
:1017D000A90C672F782F8827B85F39F0B93FCCF371
:1017E000869577956795B395D9F73EF49095809552
:1017F000709561957F4F8F4F9F4F0895E89409C072
:1018000097FB3EF490958095709561957F4F8F4F33
:101810009F4F9923A9F0F92F96E9BB279395F69549
:10182000879577956795B795F111F8CFFAF4BB0FC7
:1018300011F460FF1BC06F5F7F4F8F4F9F4F16C02B
:10184000882311F096E911C0772321F09EE8872FB5
:10185000762F05C0662371F096E8862F70E060E071
:101860002AF09A95660F771F881FDAF7880F9695EA
:10187000879597F90895990F0008550FAA0BE0E88E
:10188000FEEF16161706E807F907C0F01216130642
:10189000E407F50798F0621B730B840B950B39F482
:1018A0000A2661F0232B242B252B21F408950A26E8
:1018B00009F4A140A6958FEF811D811D089597F928
:1018C0009F6780E870E060E008959FEF80EC0895E6
:1018D00000240A941616170618060906089500240F
:1018E0000A9412161306140605060895092E039489
:1018F000000C11F4882352F0BB0F40F4BF2B11F4FD
:1019000060FF04C06F5F7F4F8F4F9F4F089557FD5B
:101910009058440F551F59F05F3F71F04795880F5D
:1019200097FB991F61F09F3F79F0879508951216F4
:1019300013061406551FF2CF4695F1DF08C01616A0
:1019400017061806991FF1CF869571056105089451
:101950000895E894BB2766277727CB0197F9089568
:101960000E943B0C08F48FEF08950E94C80C0C9461
:10197000760C0E94680C38F00E946F0C20F09523C2
:1019800011F00C945F0C0C94650C11240C94AA0CAF
:101990000E94870C70F3959FC1F3950F50E0551F7F
:1019A000629FF001729FBB27F00DB11D639FAA27B4
:1019B000F00DB11DAA1F649F6627B00DA11D661F03
:1019C000829F2227B00DA11D621F739FB00DA11D24
:1019D000621F839FA00D611D221F749F3327A00DDE
:1019E000611D231F849F600D211D822F762F6A2F7A
:1019F00011249F5750409AF0F1F088234AF0EE0FDF
:101A0000FF1FBB1F661F771F881F91505040A9F70B
:101A10009E3F510580F00C945F0C0C94AA0C5F3F24
:101A2000E4F3983ED4F3869577956795B795F79547
:101A3000E7959F5FC1F7FE2B880F911D96958795BF
:101A400097F9089581E090E0F8940C94270DF894AC
:021A5000FFCFC6
:101A520000000000B9028C02C0046002840270021D
:101A62006102000000002C059504C3047905F4040A
:101A7200D204E60438206368616E6E656C2053659B
:0E1A820072766F207465737421000D0A0000E7
:00000001FF
