:100000000C9493010C94F8060C94CD060C94A20663
:100010000C9477060C944C060C9421060C94F6056F
:100020000C94CB050C94C4010C94C4010C94C40131
:100030000C94C4010C94C4010C94C4010C94C4012C
:100040000C94C4010C94C4010C94C4010C94C4011C
:100050000C94C4010C94C4010C94C4010C9481054B
:100060000C94C4010C944D070C9423070C94C40108
:100070000C94C4010C94C4010C94C4010C94C401EC
:100080000C94C4010C94C4010C94C4010C94C401DC
:100090000C94C4010C94C4010C94C4010C94F30B93
:1000A0000C94C4010C94C4010C94C4010C94C401BC
:1000B0000C94C4010C94C4010C94C4010C94C401AC
:1000C0000C94C4010C94C4010C94C4010C94C4019C
:1000D0000C94C4010C94C4010C94C4010C94C4018C
:1000E0000C94C4010F021202010205020B02490224
:1000F00016021A022002240228022E0232023602BE
:1001000049023C0240024402A807AD07B207BC07FF
:10011000C6073F08D007D807E007EA07F407FE073D
:100120000D0817083F0821082B0835080C94A50F67
:100130000C94BC070C9405020C94B1020C942E0292
:100140000C94D8010C94EC010C9428020C94AD078B
:100150000C9412020C9435080C9440020C940D0877
:100160000C94C9010C9401020C94E0070C94240235
:100170000C94E3030C940B020C9436020C940B03C6
:100180000C9444020C94A2020C943C020C94320293
:100190000C9416020C9420020C949F020C945803A9
:1001A0000C9413040C94D8070C94A8070C944004E6
:1001B0000C94C6070C941A020C9473020C94EA0770
:1001C0000C9421080C940F020C94D0070C94B303E8
:1001D0000C9449020C942B080C94B2070C94C601A1
:1001E0000C943F080C94C7010C9417080C947402EB
:1001F0000C94C5020C94FE070C94F4070C94D302E3
:100200000C94C80100002100240027002A002D00C2
:100210003000330001010000040107010A01000061
:100220002200250028002B002E003100340002019E
:100230000000050108010B0100002000230026003A
:1002400029002C002F0032000001000003010601EC
:10025000090105050505070508080808020202024C
:100260000A0A080804040404010101010101010152
:100270000303030303030303040707070C0C0C0C1D
:100280000C0C0C0C02020202060606060606060606
:100290000B0B0B0B0B0B0B0B010210202008081093
:1002A00020401020408002010201080402010102E6
:1002B00004081020408080402010080402018004BF
:1002C000020180402010080402010804020101021A
:1002D0000408102040800102040810204080000023
:1002E0000A0B02090C0D0E080703040100000000B0
:1002F00000000000000000000000000000000000FE
:1003000000000000000000000000121110000000BA
:1003100000000000000000000000000000000000DD
:1003200000000000A50F11241FBECFEFD1E2DEBFF9
:10033000CDBF00E00CBF12E0A0E0B2E0EAEBF4E2D7
:1003400000E00BBF02C007900D92A235B107D9F7AC
:1003500023E0A2E5B2E001C01D92AE3CB207E1F796
:1003600011E0C3E9D1E000E006C021970109802F28
:10037000FE010E940B10C239D10780E00807A9F7DF
:100380000E94250D0C945B120C94000008950895B2
:100390000895E091690280916802E81730F4F0E076
:1003A000E659FD4F808190E008958FEF9FEF08950B
:1003B0009091690280916802981750F4E92FF0E05B
:1003C000E659FD4F208130E09F5F9093690202C0A3
:1003D0002FEF3FEFC90108958091680290E02091CE
:1003E0006902821B9109089590E0FC013197E23186
:1003F000F10508F04EC08827EE58FF4F8F4F0C9440
:100400000B10809180008F7703C0809180008F7DDA
:1004100080938000089580918000877FF9CF84B514
:100420008F7702C084B58F7D84BD08958091B00020
:100430008F7703C08091B0008F7D8093B0000895C6
:10044000809190008F7707C0809190008F7D03C0CE
:1004500080919000877F8093900008958091A00004
:100460008F7707C08091A0008F7D03C08091A0008E
:10047000877F8093A0000895809120018F7707C027
:10048000809120018F7D03C080912001877F809320
:1004900020010895CF93DF93282F30E0F901E25235
:1004A000FD4F8491F901E856FD4FD491F901EE5AC0
:1004B000FD4FC491CC2391F081110E94F401EC2FE7
:1004C000F0E0EE0FFF1FE85CFD4FA591B491EC91B9
:1004D000ED2381E090E021F480E002C080E090E034
:1004E000DF91CF9108950895CF92DF92EF92FF921E
:1004F0000F931F93CF93DF936C017A018B01C0E0C0
:10050000D0E0CE15DF0581F0D8016D918D01D601C7
:10051000ED91FC910190F081E02DC6011995892B98
:1005200011F02196EECF7E01C701DF91CF911F918F
:100530000F91FF90EF90DF90CF900895089580E0A5
:1005400090E00895FC01538D448D252F30E0842FD9
:1005500090E0821B930B541710F0CF9608950197EB
:100560000895FC01918D828D981761F0828DDF01D5
:10057000A80FB11D5D968C91928D9F5F9F73928F96
:1005800090E008958FEF9FEF0895FC01918D828D8B
:10059000981731F0828DE80FF11D858D90E0089558
:1005A0008FEF9FEF0895FC01918D228D892F90E0B0
:1005B000805C9F4F821B91098F73992708958DEA64
:1005C00092E00E94D30221E0892B09F420E0822FDF
:1005D0000895FC01848DDF01A80FB11DA35ABF4F00
:1005E0002C91848D90E001968F739927848FA68932
:1005F000B7892C93A089B1898C91837080648C9386
:10060000938D848D981306C00288F389E02D808134
:100610008F7D80830895EF92FF920F931F93CF9366
:10062000DF93EC0181E0888F9B8D8C8D981305C042
:10063000E889F989808185FD26C0F62E0B8D10E0B2
:100640000F5F1F4F0F731127E02E8C8DE8120CC027
:100650000FB607FCFACFE889F989808185FFF5CFCD
:10066000CE010E94E902F1CF8B8DFE01E80FF11D52
:10067000E35AFF4FF0829FB7F8940B8FEA89FB890A
:10068000808180620AC09FB7F894EE89FF896083F9
:10069000E889F98980818370806480839FBF81E0CD
:1006A00090E0DF91CF911F910F91FF90EF9008950F
:1006B000CF93DF93EC01888D8823C9F0EA89FB8909
:1006C000808185FD05C0A889B9898C9186FD0FC000
:1006D0000FB607FCF5CF808185FFF2CFA889B989D5
:1006E0008C9185FFEDCFCE010E94E902E7CFDF912B
:1006F000CF91089580E090E0892B21F00E94DF02E5
:10070000811125C080E090E0892B41F080E090E0ED
:10071000892B21F00E94000081111CC080E090E034
:10072000892B41F080E090E0892B21F00E940000AD
:10073000811113C080E090E0892BA1F080E090E06F
:10074000892B81F00E94000081110AC008950E9447
:100750000000D8CF0E940000E1CF0E940000EACF45
:100760000C940000089582E10E944A02019731F43E
:1007700083E10E944A02019791F405C083E10E943F
:100780004A02892B61F48091520290915302A09108
:100790005402B09155020196A11DB11D0BC080916C
:1007A000520290915302A0915402B09155020197C8
:1007B000A109B1098093520290935302A09354026D
:1007C000B0935502089583E10E944A02019731F4E3
:1007D00082E10E944A02892B91F405C082E10E94C5
:1007E0004A02019761F48091520290915302A091C4
:1007F0005402B09155020196A11DB11D0BC080910C
:10080000520290915302A0915402B0915502019767
:10081000A109B1098093520290935302A09354020C
:10082000B09355020895CF92DF92EF92FF920F930B
:100830001F93CF93DF937C01CB018A0120918A0221
:10084000222389F0EB016B01C40ED51ECC15DD050A
:1008500069F06991D701ED91FC910190F081E02D53
:10086000C7011995F3CF642F0E94B208C801DF9128
:10087000CF911F910F91FF90EF90DF90CF9008954F
:10088000CF93DF931F92CDB7DEB7698320918A02A1
:100890002223D1F02091AC02203240F021E030E060
:1008A000FC013383228380E090E015C080918B02AD
:1008B000E82FF0E0E457FD4F998190838F5F80939C
:1008C0008B028093AC0205C061E0CE0101960E94CC
:1008D000B20881E090E00F90DF91CF9108950E94DF
:1008E00056121F93CF93DF93282F30E0F901E25285
:1008F000FD4F8491F901E856FD4FD491F901EE5A6C
:10090000FD4FC491CC23C1F0162F81110E94F40138
:10091000EC2FF0E0EE0FFF1FE25EFD4FA591B491CA
:100920009FB7F894111104C08C91D095D82302C0C0
:10093000EC91DE2BDC939FBFDF91CF911F91089547
:10094000CF93DF93EC018F3F910509F044F4C13060
:100950008FEFD8072CF11C161D068CF402C0CFEFC8
:10096000D0E061E088E10E94710461E089E10E94C9
:10097000710460E08AE10E947104CE0123C02097D7
:1009800089F461E088E10E94710461E089E10E94DC
:10099000710461E08AE10E94710480E090E012C07D
:1009A000C1E0DFEF61E088E10E94710460E089E16D
:1009B0000E94710461E08AE10E94710488279927EE
:1009C0008C1B9D0BDF91CF910C948307CF93DF930A
:1009D00090E0FC01E856FD4F2491FC01EE5AFD4FDA
:1009E0008491882361F190E0880F991FFC01EC5FEE
:1009F000FD4FC591D491FC01E25EFD4FA591B491EC
:100A0000611109C09FB7F89488812095822388835B
:100A1000EC912E230BC0623061F49FB7F89488816B
:100A2000322F309583238883EC912E2B2C939FBFFC
:100A300006C08FB7F894E8812E2B28838FBFDF91F3
:100A4000CF9108953FB7F894809160029091610230
:100A5000A0916202B091630226B5A89B05C02F3F0A
:100A600019F00196A11DB11D3FBFBA2FA92F982FD4
:100A70008827820F911DA11DB11DBC01CD0142E04F
:100A8000660F771F881F991F4A95D1F708958F9297
:100A90009F92AF92BF92CF92DF92EF92FF926B0143
:100AA0007C010E9422054B015C01C114D104E104C8
:100AB000F104F1F00E942205DC01CB0188199909AB
:100AC000AA09BB09883E9340A105B10570F321E056
:100AD000C21AD108E108F10888EE880E83E0981E5A
:100AE000A11CB11CC114D104E104F10419F7DDCF3C
:100AF000FF90EF90DF90CF90BF90AF909F908F903E
:100B000008951F920F920FB60F9211242F933F93C7
:100B10008F939F93AF93BF9380915C0290915D02FE
:100B2000A0915E02B0915F0230915B0223E0230F3F
:100B30002D3720F40196A11DB11D05C026E8230F15
:100B40000296A11DB11D20935B0280935C029093DD
:100B50005D02A0935E02B0935F028091600290916B
:100B60006102A0916202B09163020196A11DB11DC4
:100B70008093600290936102A0936202B09363023B
:100B8000BF91AF919F918F913F912F910F900FBE89
:100B90000F901F9018951F920F920FB60F9211246D
:100BA0000BB60F922F933F934F935F936F937F9367
:100BB0008F939F93AF93BF93EF93FF93E0910E02B8
:100BC000F0910F021995FF91EF91BF91AF919F9115
:100BD0008F917F916F915F914F913F912F910F90E6
:100BE0000BBE0F900FBE0F901F9018951F920F9283
:100BF0000FB60F9211240BB60F922F933F934F9382
:100C00005F936F937F938F939F93AF93BF93EF9374
:100C1000FF93E0910C02F0910D021995FF91EF9175
:100C2000BF91AF919F918F917F916F915F914F9104
:100C30003F912F910F900BBE0F900FBE0F901F9002
:100C400018951F920F920FB60F9211240BB60F92A8
:100C50002F933F934F935F936F937F938F939F93C4
:100C6000AF93BF93EF93FF93E0910202F0910302E1
:100C70001995FF91EF91BF91AF919F918F917F91C6
:100C80006F915F914F913F912F910F900BBE0F90FD
:100C90000FBE0F901F9018951F920F920FB60F92D4
:100CA00011240BB60F922F933F934F935F936F9343
:100CB0007F938F939F93AF93BF93EF93FF93E091B5
:100CC0000002F09101021995FF91EF91BF91AF9150
:100CD0009F918F917F916F915F914F913F912F9154
:100CE0000F900BBE0F900FBE0F901F9018951F9284
:100CF0000F920FB60F9211240BB60F922F933F93C2
:100D00004F935F936F937F938F939F93AF93BF9313
:100D1000EF93FF93E0910A02F0910B021995FF9176
:100D2000EF91BF91AF919F918F917F916F915F9163
:100D30004F913F912F910F900BBE0F900FBE0F90D0
:100D40001F9018951F920F920FB60F9211240BB699
:100D50000F922F933F934F935F936F937F938F9354
:100D60009F93AF93BF93EF93FF93E0910802F091AD
:100D700009021995FF91EF91BF91AF919F918F91CA
:100D80007F916F915F914F913F912F910F900BBE8B
:100D90000F900FBE0F901F9018951F920F920FB6D5
:100DA0000F9211240BB60F922F933F934F935F93A3
:100DB0006F937F938F939F93AF93BF93EF93FF9323
:100DC000E0910602F09107021995FF91EF91BF9112
:100DD000AF919F918F917F916F915F914F913F91D3
:100DE0002F910F900BBE0F900FBE0F901F90189574
:100DF0001F920F920FB60F9211240BB60F922F93E2
:100E00003F934F935F936F937F938F939F93AF9392
:100E1000BF93EF93FF93E0910402F09105021995BF
:100E2000FF91EF91BF91AF919F918F917F916F91C2
:100E30005F914F913F912F910F900BBE0F900FBE7E
:100E40000F901F9018951F920F920FB60F921124BA
:100E50000BB60F922F933F934F935F936F937F93B4
:100E60008F939F93AF93BF93EF93FF938DEA92E09D
:100E70000E94E902FF91EF91BF91AF919F918F91F5
:100E80007F916F915F914F913F912F910F900BBE8A
:100E90000F900FBE0F901F9018951F920F920FB6D4
:100EA0000F9211240BB60F922F938F939F93EF9372
:100EB000FF93E091BD02F091BE028081E091C302F8
:100EC000F091C40282FD12C090818091C6028F5FB2
:100ED0008F732091C702821751F0E091C602F0E0B3
:100EE000E355FD4F958F8093C60201C08081FF912D
:100EF000EF919F918F912F910F900BBE0F900FBE8E
:100F00000F901F901895CF93DF93EC0161E08EE274
:100F10000E94E604209711F460E004C0CF3FD105A1
:100F200031F461E08EE2DF91CF910C947104ECE03A
:100F3000F3E0E4918E2F90E0FC013197E231F1056E
:100F400008F09DC08827EC57FF4F8F4F0C940B1073
:100F500084B5806884BDC7BD97C084B5806284BDF8
:100F6000C8BD92C080918000806880938000D0933B
:100F70008900C093880088C080918000806280933F
:100F80008000D0938B00C0938A007EC08091800047
:100F9000886080938000D0938D00C0938C0074C0D3
:100FA0008091B00080688093B000C093B3006CC0A3
:100FB0008091B00080628093B000C093B40064C0A0
:100FC00080919000806880939000D0939900C093A6
:100FD00098005AC080919000806280939000D093D6
:100FE0009B00C0939A0050C08091900088608093CD
:100FF0009000D0939D00C0939C0046C08091A000BB
:1010000080688093A0008091A0008F7B8093A000D7
:10101000D093A900C093A80037C08091A00080623F
:101020008093A000D093AB00C093AA002DC0809104
:10103000A00088608093A000D093AD00C093AC0066
:1010400023C080912001806880932001D0932901E2
:10105000C093280119C080912001806280932001F3
:10106000D0932B01C0932A010FC08091200188608A
:1010700080932001D0932D01C0932C0105C0C0386E
:10108000D1050CF04ECF48CFDF91CF9108958091DC
:101090007B00877F80937B0086E480937C00809137
:1010A0007A00806480937A0080917A0086FDFCCF7C
:1010B000809178002091790090E0922B089500971C
:1010C00069F0FC0101900020E9F73197AF01481B5E
:1010D000590BBC018DEA92E00C94740280E090E020
:1010E00008958F929F92AF92BF920F931F93CF93C9
:1010F000DF93CDB7DEB7A1970FB6F894DEBF0FBE72
:10110000CDBF19A2423008F44AE08E010F5D1F4F97
:10111000842E912CA12CB12CA50194010E94E90FE1
:10112000E62FB901CA0101501109EA3014F4E05D5B
:1011300001C0E95CD801EC93232B242B252B61F70C
:10114000C8010E945F08A1960FB6F894DEBF0FBEDB
:10115000CDBFDF91CF911F910F91BF90AF909F9026
:101160008F90089540917203262F30E0240F311D97
:1011700021323105DCF42091BB032430C9F4FC0199
:1011800080E090E0861758F4309172032191DC01E1
:10119000AE5ABC4FA30FB11D2C930196F3CF809193
:1011A0007203680F6093720380E0089581E00895F0
:1011B00082E008951092BB0381E08093BA031092FD
:1011C000950361E084E10E94710461E085E10E9481
:1011D0007104E9EBF0E080818E7F808380818D7FD8
:1011E000808388E48093B80085E48093BC000895F0
:1011F000CF93DF9391E0909351038823B9F0C0918E
:10120000B800D091BA008091BC008A7B8093BC006A
:1012100060E084E10E94710460E085E10E94710455
:101220000E94DA08D093BA00C093B800DF91CF9142
:1012300008958F929F92AF92BF92CF92DF92EF92DA
:10124000FF920F931F93CF93DF931091AC02113253
:1012500008F0C2C0D091C1030E9422056B017C013D
:10126000C091BB03CC2311F18091BD039091BE03CB
:10127000A091BF03B091C003892B8A2B8B2B81F3E4
:101280000E9422058090BD039090BE03A090BF03F2
:10129000B090C003DC01CB018C199D09AE09BF09D8
:1012A00088169906AA06BB06D8F682C082E080930B
:1012B000BB0381E08093BA038FEF8093B903109250
:1012C000B8031093B703ACE8B2E0E7E9F3E080E0DD
:1012D000181721F09D9191938F5FFACF109296038A
:1012E000909196038D2F880F892B80939603809180
:1012F0009503813089F5109295030E9422056B01B8
:101300007C01809196038093BB008091BD039091F6
:10131000BE03A091BF03B091C003892B8A2B8B2BF6
:10132000A9F00E9422050091BD031091BE032091F7
:10133000BF033091C003DC01CB018C199D09AE09BC
:10134000BF09081719072A073B0790F18091BC00D5
:1013500083FDD7CF85EC01C085EE8093BC000E9451
:1013600022056B017C018091BB03823039F58091AD
:10137000BD039091BE03A091BF03B091C003892B20
:101380008A2B8B2B81F30E9422050091BD031091C3
:10139000BE032091BF033091C003DC01CB018C1947
:1013A0009D09AE09BF09081719072A073B07D8F698
:1013B0008091BC030E94F808C5E013C08091B90376
:1013C0008F3F79F08091B903803241F08091B90369
:1013D000803331F0C4E005C0C1E003C0C2E001C009
:1013E000C3E010928B021092AC0210928A028C2FF2
:1013F000DF91CF911F910F91FF90EF90DF90CF90F1
:10140000BF90AF909F908F9008951F93CF93DF93DD
:10141000162FCAE4D3E0988121E020938A029093AA
:10142000C10310928B021092AC02A981BA81ED9196
:10143000FC9111970190F081E02D682FCD01199555
:1014400089819A81DC01ED91FC910190F081E02D80
:10145000612F199589819A81DF91CF911F910C9409
:1014600019098F929F92AF92BF92CF92DF92EF9223
:10147000FF920F931F93CF93DF936B017C0120E0CA
:1014800030E040E85FE30E94801087FD12C020E05A
:1014900030EC4AE555E4C701B6010E94DF11181689
:1014A00074F4C12C30ECD32E3AE5E32E35E4F32E60
:1014B00006C0C12CD12C20E8E22E2FE3F22E609141
:1014C0004D0370914E0380914F03909150030E9401
:1014D0002D114B015C0120E030E040E855E4C701EC
:1014E000B6010E94E4119B01AC01C501B4010E9448
:1014F000851020E030E040E05FE30E94141020E01F
:1015000030E040E85FE30E9413106B017C0120E0B3
:1015100030E040E450E40E94801087FD11C020E0DC
:1015200030E04FE753E4C701B6010E94DF111816FF
:1015300064F4C12CD12C9FE7E92E93E4F92E05C069
:10154000C12CD12C80E4E82EFE2CC701B6010E94EC
:10155000FE10D62F80914A0391E090938A028093E7
:10156000C10310928B021092AC0280914B039091B8
:101570004C03DC01ED91FC910190F081E02D60E0E5
:10158000199580914B0390914C030E941909F0909A
:101590004A030E9422054B015C01C091BB03CC238E
:1015A00039F18091BD039091BE03A091BF03B0912A
:1015B000C003892B8A2B8B2B81F30E94220500917B
:1015C000BD031091BE032091BF033091C003DC0125
:1015D000CB0188199909AA09BB09081719072A0715
:1015E0003B07D8F68091BC030E94F808C0E08EC08B
:1015F00081E08093BB038093BA039FEF9093B9037C
:101600001092B8031092B7038093960390919603BB
:101610008F2D880F892B80939603809195038130BD
:1016200089F5109295030E9422056B017C0180913F
:1016300096038093BB008091BD039091BE03A0915F
:10164000BF03B091C003892B8A2B8B2BA9F00E947A
:1016500022058090BD039090BE03A090BF03B09080
:10166000C003DC01CB018C199D09AE09BF098816A6
:101670009906AA06BB0690F18091BC0083FDD7CFE6
:1016800085EC01C085EE8093BC000E9422056B01B1
:101690007C018091BB03813031F58091BD03909135
:1016A000BE03A091BF03B091C003892B8A2B8B2B63
:1016B00081F30E9422058090BD039090BE03A0900C
:1016C000BF03B090C003DC01CB018C199D09AE09AA
:1016D000BF0988169906AA06BB06D8F68091BC03F6
:1016E0000E94F80813C08091B803811103C0809153
:1016F000B80301C081E0E7E9F3E0AAE6B2E0C0E0A8
:10170000C81721F091919D93CF5FFACF1092690293
:10171000C093680280914B0390914C03DC01ED91E2
:10172000FC910284F385E02D1995C82F682F6F7600
:10173000606180E00E94050A6D2F8EEF0E94050A0D
:101740006C2F80E00E94050A65E070E080E090E088
:101750000E9447056C2F606A80E0DF91CF911F9156
:101760000F91FF90EF90DF90CF90BF90AF909F9040
:101770008F900C94050A85ED8093BC008091BD0389
:101780009091BE03A091BF03B091C0030796A11D25
:10179000B11D23E0B695A795979587952A95D1F722
:1017A0002091BC0024FF1CC04091BD035091BE039A
:1017B0006091BF037091C003452B462B472B81F3EB
:1017C0000097A105B10541F025E32A95F1F7000046
:1017D0000197A109B109E4CF8091BC030C94F808EA
:1017E0001092BB0308951F920F920FB60F9211240F
:1017F0000BB60F922F933F934F935F936F937F930B
:101800008F939F93AF93BF93EF93FF938091B90012
:10181000887F803609F49CC068F5883209F45BC083
:1018200090F4803109F454C038F4882309F4F6C0E8
:10183000883009F44DC0F6C0883109F44CC08032BC
:1018400009F45DC0EFC0803409F468C048F4803307
:1018500009F455C0883309F0E5C08093B903D8C0B6
:10186000803509F44FC0883509F45DC0883409F02B
:10187000D9C0D6C0883909F4C7C0A8F4883709F49C
:1018800067C038F4883609F463C0803709F460C053
:10189000C9C0883809F4B8C0803909F45FC08038FD
:1018A00009F0C0C05BC0803B09F486C038F4803AC0
:1018B00009F466C0883A09F47FC0B4C0803C09F4DA
:1018C000A7C0883C09F4A4C0883B09F48AC0AAC018
:1018D0008091960310C09091B8038091B703981738
:1018E00070F5E091B80381E08E0F8093B803F0E0CB
:1018F000E956FC4F80818093BB0085EC86C08093C5
:10190000B9038EC0E091B80381E08E0F8093B803D5
:101910008091BB00F0E0E956FC4F80839091B803C2
:101920008091B7036EC0E091B80381E08E0F809381
:10193000B8038091BB00F0E0E956FC4F80838091B2
:10194000BA0381116DC081E08093950384EA61C080
:1019500083E08093BB0310929403CFCF80919403D4
:10196000803208F051C0E091940381E08E0F8093A3
:1019700094038091BB00F0E0EC58FC4F8083BDCF16
:1019800085EC8093BC001092BB038091940380325D
:1019900030F4E0919403F0E0EC58FC4F1082609139
:1019A000940370E0E0916602F091670284E793E0AF
:1019B00019951092940336C084E08093BB03109273
:1019C000730310927203E0916402F091650219951D
:1019D00080917203811105C081E08093720310929F
:1019E0005203E091730381E08E0F80937303F0E064
:1019F000EE5AFC4F80818093BB00909173038091DD
:101A00007203981708F479CF85E88093BC000AC068
:101A100085EC8093BC001092BB0304C01092B90304
:101A20000E94BB0BFF91EF91BF91AF919F918F915E
:101A30007F916F915F914F913F912F910F900BBECE
:101A40000F900FBE0F901F901895789484B5826008
:101A500084BD84B5816084BD85B5826085BD85B552
:101A6000816085BD80916E00816080936E001092D0
:101A7000810080918100826080938100809181004B
:101A800081608093810080918000816080938000DC
:101A90008091B10084608093B1008091B00081603A
:101AA0008093B0008091910082608093910080913A
:101AB000910081608093910080919000816080937B
:101AC00090008091A10082608093A1008091A1008C
:101AD00081608093A1008091A00081608093A0002C
:101AE0008091210182608093210180912101816098
:101AF0008093210180912001816080932001809159
:101B00007A00846080937A0080917A00826080936A
:101B10007A0080917A00816080937A0080917A00C7
:101B2000806880937A001092C10061E088E10E9491
:101B3000E60461E089E10E94E60461E08AE10E9436
:101B4000E60461E08EE20E94E60460E083E10E9428
:101B5000E60460E082E10E94E60460E08CE30E941B
:101B6000E60483EE93E0909309028093080280914B
:101B700069008F7C806180936900EA9A83EB93E02F
:101B800090930B0280930A02809169008F738064A6
:101B900080936900EB9A1092690210926802109289
:101BA0008B021092AC020E94DA0886EC91E09093CE
:101BB00065028093640287EC91E0909367028093C2
:101BC000660260E880E00E94050A6AE070E080E05A
:101BD00090E00E94470560E070E08AE794E40E948C
:101BE000310A80E498E7ADE7B1E080934D0390932C
:101BF0004E03A0934F03B093500360E070E088E47D
:101C000092E40E94310A6AE070E080E090E00E9475
:101C10004705E091BD02F091BE0282E08083E09131
:101C2000B902F091BA021082E091BB02F091BC02BD
:101C30008FEC80831092C502E091C102F091C20244
:101C400086E08083E091BF02F091C00280818061D4
:101C50008083E091BF02F091C00280818860808320
:101C6000E091BF02F091C002808180688083E091A2
:101C7000BF02F091C00280818F7D80838FB7F8947E
:101C800040915C0250915D0260915E0270915F0232
:101C90008FBF84E392E00E945F0883E492E00E9499
:101CA0005F080E9447086C01990FEE08FF08F7FED5
:101CB0000EC06DE28DEA92E00E940B036627772743
:101CC000CB016C197D098E099F094AE003C04AE0E7
:101CD000C701B6010E94710883E492E00E945F0888
:101CE00086E490E00E94A00464E670E080E090E06A
:101CF0000E9447050E9447088E36910594F280E0C5
:101D000090E00E94A004109252021092530210928E
:101D100054021092550268EB7BE080E090E00E9454
:101D20004705C1E0609152027091530280915402C4
:101D3000909155020E942F1125E131E449E85DE3BD
:101D40000E94E4110E94F710072E000C880B990BDB
:101D50000E942F1120E030E048EC52E40E94131062
:101D60006B017C012FE832EC45E75DE30E94E41152
:101D700020915702309158024091590250915A02D5
:101D80000E9414104B015C0160935702709358023B
:101D90008093590290935A02A7019601C701B60198
:101DA0000E94131020E030E040E450E40E94E4116F
:101DB0002B013C012DEC3CEC4CEC5EE3C701B60181
:101DC0000E94E4119B01AC01C301B2010E941410F6
:101DD000A50194010E9414106B017C010E94F71070
:101DE000CB010E94A004A7019601C701B6010E9481
:101DF0005112882319F086E492E01AC04601570177
:101E0000E894B7F82FEF3FEF4FE75FE7C501B40164
:101E10000E94511281110FC02FEF3FEF4FE75FE794
:101E2000C501B4010E94801018162CF48AE492E0D7
:101E30000E945F0876C02FEF3FEF4FE75FE4C701D6
:101E4000B6010E94DF1118161CF48EE492E0F0CF68
:101E50002FEF3FEF4FE75FECC701B6010E94801004
:101E600087FDF3CF20E030E0A901C701B6010E9451
:101E7000801087FF09C06DE28DEA92E00E940B039B
:101E8000C701B601905802C0C701B6012AE037ED7C
:101E900043EA5BE30E9414102B013C010E94FE10F8
:101EA0004B015C010E942D119B01AC01C301B201E9
:101EB0000E9413102B013C014AE0C501B4010E94AD
:101EC00071086EE28DEA92E00E940B0320E030E0A0
:101ED00040E251E4C301B2010E94E4112B013C0134
:101EE0000E94FE104B01A12CB12C4AE0C501B401A7
:101EF0000E947108C501B4010E942D119B01AC0123
:101F0000C301B2010E94131020E030E040E251E42E
:101F10000E94E4110E94FE1080E090E04AE00E94DE
:101F2000710883E492E00E945F0820E030E040E224
:101F300051E4C701B6010E948010880F880B8C23E2
:101F4000809356020E947A03EDCEA2ECB3E0139682
:101F50001C921E92129748EE53E060E070E01496D7
:101F60004D935D936D937C93179784E192E0119666
:101F70009C938E93EDEAF2E01382128244835583A0
:101F80006683778386E292E09183808385EC90E09C
:101F90009587848784EC90E09787868780EC90E033
:101FA000918B808B81EC90E0938B828B82EC90E024
:101FB000958B848B86EC90E0978B868B118E128E9E
:101FC000138E148EEAE4F3E080E48083B283A1836D
:101FD0000895A1E21A2EAA1BBB1BFD010DC0AA1F6A
:101FE000BB1FEE1FFF1FA217B307E407F50720F082
:101FF000A21BB30BE40BF50B661F771F881F991FFD
:102000001A9469F760957095809590959B01AC0145
:10201000BD01CF010895EE0FFF1F881F8BBF0790F2
:10202000F691E02D19945058BB27AA270E942B1037
:102030000C94A5110E94971138F00E949E1120F077
:1020400039F49F3F19F426F40C9494110EF4E095A2
:10205000E7FB0C948E11E92F0E94B61158F3BA17C2
:10206000620773078407950720F079F4A6F50C94AE
:10207000D8110EF4E0950B2EBA2FA02D0B01B9014B
:1020800090010C01CA01A0011124FF27591B99F0EE
:10209000593F50F4503E68F11A16F040A22F232FFA
:1020A000342F4427585FF3CF469537952795A7954A
:1020B000F0405395C9F77EF41F16BA0B620B730BF1
:1020C000840BBAF09150A1F0FF0FBB1F661F771F62
:1020D000881FC2F70EC0BA0F621F731F841F48F417
:1020E000879577956795B795F7959E3F08F0B0CFA0
:1020F0009395880F08F09927EE0F97958795089587
:102100000E946A1108F481E008950E9499100C94CD
:10211000A5110E949E1158F00E94971140F029F4D9
:102120005F3F29F00C948E1151110C94D9110C942D
:1021300094110E94B61168F39923B1F3552391F3DA
:10214000951B550BBB27AA2762177307840738F026
:102150009F5F5F4F220F331F441FAA1FA9F335D083
:102160000E2E3AF0E0E832D091505040E695001C37
:10217000CAF72BD0FE2F29D0660F771F881FBB1FF1
:10218000261737074807AB07B0E809F0BB0B802DCF
:10219000BF01FF2793585F4F3AF09E3F510578F0FB
:1021A0000C948E110C94D9115F3FE4F3983ED4F354
:1021B000869577956795B795F7959F5FC9F7880FCF
:1021C000911D9695879597F90895E1E0660F771F21
:1021D000881FBB1F621773078407BA0720F0621BB2
:1021E000730B840BBA0BEE1F88F7E09508950E94DD
:1021F000FE106894B1110C94D91108950E94BE117B
:1022000088F09F5798F0B92F9927B751B0F0E1F0B7
:10221000660F771F881F991F1AF0BA95C9F714C067
:10222000B13091F00E94D811B1E008950C94D8110A
:10223000672F782F8827B85F39F0B93FCCF38695A0
:1022400077956795B395D9F73EF4909580957095FD
:1022500061957F4F8F4F9F4F0895E89409C097FB7A
:102260003EF490958095709561957F4F8F4F9F4F6D
:102270009923A9F0F92F96E9BB279395F6958795B1
:1022800077956795B795F111F8CFFAF4BB0F11F474
:1022900060FF1BC06F5F7F4F8F4F9F4F16C088231B
:1022A00011F096E911C0772321F09EE8872F762F51
:1022B00005C0662371F096E8862F70E060E02AF092
:1022C0009A95660F771F881FDAF7880F969587957E
:1022D00097F90895990F0008550FAA0BE0E8FEEF53
:1022E00016161706E807F907C0F012161306E407DA
:1022F000F50798F0621B730B840B950B39F40A26D3
:1023000061F0232B242B252B21F408950A2609F4B0
:10231000A140A6958FEF811D811D089597F99F67B4
:1023200080E870E060E008959FEF80EC089500245D
:102330000A941616170618060906089500240A942A
:1023400012161306140605060895092E0394000CB0
:1023500011F4882352F0BB0F40F4BF2B11F460FF3F
:1023600004C06F5F7F4F8F4F9F4F089557FD905868
:10237000440F551F59F05F3F71F04795880F97FB49
:10238000991F61F09F3F79F0879508951216130603
:102390001406551FF2CF4695F1DF08C01616170632
:1023A0001806991FF1CF8695710561050894089567
:1023B000E894BB2766277727CB0197F908950E94F9
:1023C0006A1108F48FEF08950E94F7110C94A5117B
:1023D0000E94971138F00E949E1120F0952311F071
:1023E0000C948E110C94941111240C94D9110E9408
:1023F000B61170F3959FC1F3950F50E0551F629F82
:10240000F001729FBB27F00DB11D639FAA27F00D4D
:10241000B11DAA1F649F6627B00DA11D661F829F74
:102420002227B00DA11D621F739FB00DA11D621F59
:10243000839FA00D611D221F749F3327A00D611D76
:10244000231F849F600D211D822F762F6A2F112458
:102450009F5750409AF0F1F088234AF0EE0FFF1F8B
:10246000BB1F661F771F881F91505040A9F79E3FE2
:10247000510580F00C948E110C94D9115F3FE4F358
:10248000983ED4F3869577956795B795F795E79538
:102490009F5FC1F7FE2B880F911D9695879597F941
:1024A00008950E946A11880B990B089581E090E0CD
:0A24B000F8940C945B12F894FFCF2F
:1024BA00730273027302730273027302730273026A
:1024CA0000000000400413049F02C801EC01D80177
:1024DA00C901000000000B037402A2025803D302D0
:1024EA00B102C50277696E63685F63757272656E61
:1024FA00743A000D0A006E616E00696E66006F76AE
:02250A00660069
:00000001FF
